:020000040800F2
:1000000068060020CD010008A70300089F03000830
:10001000A30300087F020008CD08000800000000CC
:100020000000000000000000000000005104000873
:1000300083020008000000002D0400083D050008B0
:10004000E7010008E7010008E7010008E7010008F0
:10005000E7010008E7010008E7010008E7010008E0
:10006000E7010008E7010008E7010008E7010008D0
:10007000E7010008E7010008E7010008E7010008C0
:10008000E7010008E7010008E7010008E7010008B0
:10009000E7010008E7010008E7010008E7010008A0
:1000A000E7010008E7010008E7010008D50600089D
:1000B000E7010008E7010008E7010008E701000880
:1000C000E7010008E7010008E7010008E701000870
:1000D000E7010008E7010008E7010008E701000860
:1000E000E7010008E7010008E7010008E701000850
:1000F000E7010008E7010008E7010008E701000840
:10010000E7010008E7010008E7010008E70100082F
:10011000E7010008E7010008E7010008E70100081F
:10012000E7010008E7010008E7010008E70100080F
:1001300000F002F800F03AF80AA090E8000C8244BF
:100140008344AAF10107DA4501D100F02FF8AFF29C
:10015000090EBAE80F0013F0010F18BFFB1A43F0A5
:10016000010318477407000094070000103A24BFE9
:1001700078C878C1FAD8520724BF30C830C144BF0C
:1001800004680C607047000000230024002500264E
:10019000103A28BF78C1FBD8520728BF30C148BFEA
:1001A0000B6070471FB51FBD10B510BD00F031F8D2
:1001B0001146FFF7F7FF00F08BFB00F04FF803B498
:1001C000FFF7F2FF03BC00F053F800000948804736
:1001D00009480047FEE7FEE7FEE7FEE7FEE7FEE729
:1001E000FEE7FEE7FEE7FEE704480549054A064B41
:1001F0007047000041050008310100086800002038
:1002000068060020680200206802002070477047DE
:100210007047754600F028F8AE460500694653461B
:1002200020F00700854618B020B5FFF7DDFFBDE8D8
:1002300020404FF000064FF000074FF000084FF04D
:10024000000B21F00701AC46ACE8C009ACE8C009DE
:10025000ACE8C009ACE8C0098D4670470446AFF36E
:1002600000802046FFF7ABFF0048704704000020E5
:1002700001491820ABBEFEE726000200704700BF10
:10028000FEE770472DE9F0410246002500260020D8
:1002900000230024002791F803C00CF00F0591F80B
:1002A00003C00CF0100CBCF1000F03D091F802C099
:1002B0004CEA050591F800C0BCF1000F31D014687C
:1002C00000202BE04FF0010C0CFA00F3B1F800C055
:1002D0000CEA03069E4220D183004FF00F0C0CFA6B
:1002E00003F7BC4305FA03FC4CEA040491F803C08D
:1002F000BCF1280F06D14FF0010C0CFA00FCC2F83B
:1003000014C00AE091F803C0BCF1480F05D14FF0CA
:10031000010C0CFA00FCC2F810C0401C0828D1D314
:100320001460B1F800C0BCF1FF0F34DD5468002048
:100330002EE000F1080C4FF0010808FA0CF3B1F8B8
:1003400000C00CEA03069E4221D183004FF00F0C3F
:100350000CFA03F7BC4305FA03FC4CEA040491F8D9
:1003600003C0BCF1280F05D100F1080C08FA0CF805
:10037000C2F8148091F803C0BCF1480F07D100F116
:10038000080C4FF0010808FA0CF8C2F81080401C65
:100390000828CED35460BDE8F0814161704700BFAA
:1003A000FEE700BFFEE7704770B5002100230F2273
:1003B000C47804B3154C246804F4E064C4F5E06424
:1003C000210AC1F10403CA40447804FA03F1847895
:1003D0001440214309010E4C0678A155047804F01D
:1003E0001F050124AC4005786D11AD0005F1E02535
:1003F000C5F8004109E0047804F01F050124AC4071
:10040000044D0678761145F8264070BD0CED00E0ED
:1004100000E400E080E100E002490143024A11608B
:10042000704700000000FA050CED00E07047000086
:1004300029B1064A92690243044B9A6104E0034AD7
:1004400092698243014B9A6170470000001002409C
:10045000704710B500F002F810BD00000CB5002088
:10046000019000903348006840F4803031490860C2
:1004700000BF3048006800F4003000900198401C34
:100480000190009818B90198B0F5A06FF1D12948F2
:10049000006800F4003010B10120009001E000205D
:1004A00000900098012843D12348006840F01000D4
:1004B000214908600846006820F0030008600846EB
:1004C000006840F0020008601A4840681949486016
:1004D0000846406848600846406840F480604860CC
:1004E0000846406820F47C1048600846406840F4A4
:1004F000E81048600846006840F08070086000BF5F
:100500000C48006800F000700028F9D009484068E5
:1005100020F00300074948600846406840F00200A8
:10052000486000BF0348406800F00C000828F9D17B
:100530000CBD000000100240002002407047000087
:1005400010B51348006840F00100114908600846E2
:100550004068104908400E494860084600680E4946
:1005600008400B4908600846006820F480200860B5
:100570000846406820F4FE0048604FF41F00886081
:10058000FFF767FF4FF000600449086010BD0000EE
:10059000001002400000FFF8FFFFF6FE08ED00E04B
:1005A00008B501210520FFF743FF01210820FFF7CF
:1005B0003FFF4FF48070ADF8000018208DF8030065
:1005C00003208DF8020069461048FFF75BFE4FF4E8
:1005D0000050ADF8000010208DF8030069460C486B
:1005E000FFF750FE4FF400510948FFF7D6FE4FF4D5
:1005F0008040ADF8000069460548FFF743FE4FF420
:1006000080410348FFF7C9FE08BD00000008014013
:10061000000C014000B589B00121C802FFF708FFB6
:100620004FF4A060FFF7F8FE1B208DF804000020B7
:100630008DF8050001208DF806008DF8070001A84F
:10064000FFF7B2FE4FF6FF70ADF81C000320ADF8C7
:10065000180000208DF82000ADF81E00ADF81A003B
:1006600006A9174800F0E0F83020ADF80800012096
:10067000ADF80A0013480088ADF80E000020ADF870
:1006800010004FF48070ADF814000020ADF8160093
:1006900002A90B4800F06EF80021094800F0B6F8F6
:1006A00001220221064800F05CF80121044800F014
:1006B0002CF80121024800F034F809B000BD000018
:1006C000002C01400000002010B5FFF769FFFFF784
:1006D000A1FF10BD10B50221084800F031F860B14B
:1006E0000221064800F00EF80021044800F099F8B5
:1006F00003480188014800F092F810BD002C014029
:1007000000000020CA430282704721B1028842F0F3
:100710000102028004E002884FF6FE731A40028054
:10072000704731B1B0F8442042F40042A0F84420B0
:1007300005E0B0F84420C2F30E02A0F84420704750
:1007400030B50246002000230024158A05EA010383
:10075000958905EA010413B10CB1012000E00020E5
:1007600030BD1AB183890B43838102E083898B43B7
:100770008381704770B5002400220023058C4FF65A
:10078000FE7635400584028C8388048B4FF68F7586
:100790002C40B51E2C400D882C43751E2A400D8917
:1007A0002A434D882A43144DA8420BD0134DA8422A
:1007B00008D0134DA84205D0124DA84202D0124DC8
:1007C000A84213D14FF6F7752A404D892A434FF6B8
:1007D000FB752A408D882A434FF6FF652B404FF664
:1007E000FF552B408D892B43CD892B438380048378
:1007F000CD888586028470BD002C01400034014004
:100800000040014000440140004801400A460021E8
:10081000018B4FF6F77319401143018370478186AE
:100820007047818470470000002202881D4B984267
:100830000ED01D4B98420BD0B0F1804F08D01B4B0F
:10084000984205D01A4B984202D01A4B984204D1D4
:100850004FF68F731A404B881A43174B984207D0B4
:10086000164B984204D04FF6FF431A40CB881A43E8
:1008700002808B8883850B8803850A4B98420BD0B6
:10088000094B984208D00E4B984205D00D4B984228
:1008900002D00D4B984201D10B7A0386012383824B
:1008A00070470000002C014000340140000400406B
:1008B00000080040000C0040001000400014004000
:1008C00000400140004401400048014000BFFEE7F5
:1008D000FFF7FAFE00BFFEE7F8080008000000205E
:1008E000040000006C010008FC080008040000205F
:0C08F0006406000088010008F40100000C
:0400000508000131BD
:00000001FF
