:020000040800F2
:1000000070060020CD010008C1040008B5030008F7
:10001000BD0400087F020008F50900080000000088
:100020000000000000000000000000006D05000856
:100030008302000800000000490500085906000876
:10004000E7010008E7010008E7010008E7010008F0
:10005000E7010008E7010008E7010008E7010008E0
:10006000E7010008E7010008E7010008E7010008D0
:10007000E7010008E7010008E7010008E7010008C0
:10008000E7010008E7010008E7010008E7010008B0
:10009000E7010008E7010008E7010008E7010008A0
:1000A000E7010008E7010008E7010008ED07000884
:1000B000E7010008E7010008E7010008E701000880
:1000C000E7010008E7010008E7010008E701000870
:1000D000E7010008E7010008E7010008E701000860
:1000E000E7010008E7010008E7010008E701000850
:1000F000E7010008E7010008E7010008E701000840
:10010000E7010008E7010008E7010008E70100082F
:10011000E7010008E7010008E7010008E70100081F
:10012000E7010008E7010008E7010008E70100080F
:1001300000F002F800F03AF80AA090E8000C8244BF
:100140008344AAF10107DA4501D100F02FF8AFF29C
:10015000090EBAE80F0013F0010F18BFFB1A43F0A5
:1001600001031847B0090000D0090000103A24BF6D
:1001700078C878C1FAD8520724BF30C830C144BF0C
:1001800004680C607047000000230024002500264E
:10019000103A28BF78C1FBD8520728BF30C148BFEA
:1001A0000B6070471FB51FBD10B510BD00F031F8D2
:1001B0001146FFF7F7FF00F01FFC00F04FF803B403
:1001C000FFF7F2FF03BC00F053F800000948804736
:1001D00009480047FEE7FEE7FEE7FEE7FEE7FEE729
:1001E000FEE7FEE7FEE7FEE704480549054A064B41
:1001F000704700005D060008310100087000002013
:1002000070060020700200207002002070477047C6
:100210007047754600F028F8AE460500694653461B
:1002200020F00700854618B020B5FFF7DDFFBDE8D8
:1002300020404FF000064FF000074FF000084FF04D
:10024000000B21F00701AC46ACE8C009ACE8C009DE
:10025000ACE8C009ACE8C0098D4670470446AFF36E
:1002600000802046FFF7ABFF004870470C000020DD
:1002700001491820ABBEFEE726000200704700BF10
:10028000FEE770472DE9F0410246002500260020D8
:1002900000230024002791F803C00CF00F0591F80B
:1002A00003C00CF0100CBCF1000F03D091F802C099
:1002B0004CEA050591F800C0BCF1000F31D014687C
:1002C00000202BE04FF0010C0CFA00F3B1F800C055
:1002D0000CEA03069E4220D183004FF00F0C0CFA6B
:1002E00003F7BC4305FA03FC4CEA040491F803C08D
:1002F000BCF1280F06D14FF0010C0CFA00FCC2F83B
:1003000014C00AE091F803C0BCF1480F05D14FF0CA
:10031000010C0CFA00FCC2F810C0401C0828D1D314
:100320001460B1F800C0BCF1FF0F34DD5468002048
:100330002EE000F1080C4FF0010808FA0CF3B1F8B8
:1003400000C00CEA03069E4221D183004FF00F0C3F
:100350000CFA03F7BC4305FA03FC4CEA040491F8D9
:1003600003C0BCF1280F05D100F1080C08FA0CF805
:10037000C2F8148091F803C0BCF1480F07D100F116
:10038000080C4FF0010808FA0CF8C2F81080401C65
:100390000828CED35460BDE8F0810246002093685F
:1003A0000B400BB1012000E0002070474161704715
:1003B0000161704700BFFEE710B508210A48FFF74A
:1003C000ECFF78B900F048F808210748FFF7E5FF8F
:1003D00040B900BF08210448FFF7DFFF0028F9D02B
:1003E000012010BD0020FCE70018014010B50421D9
:1003F0000A48FFF7D2FF78B900F02EF80421074829
:10040000FFF7CBFF40B900BF04210448FFF7C5FF49
:100410000028F9D0012010BD0020FCE700180140A1
:1004200008B50121402000F091F80820ADF8000047
:1004300003208DF8020004208DF80300694605486A
:10044000FFF720FF0420ADF8000069460148FFF7E0
:1004500019FF08BD00180140002006E0002100E05F
:10046000491CB1F57A7FFBD3401C6428F6D3704752
:1004700008B50121482000F069F82020ADF80000FF
:1004800010208DF8030003208DF80200694609480A
:10049000FFF7F8FE20210748FFF78AFF2020ADF87C
:1004A000000069460448FFF7EDFE20210248FFF7EF
:1004B0007FFF08BD000C01400018014000BFFEE7AF
:1004C0007047000070B5002100230F22C47804B3E8
:1004D000154C246804F4E064C4F5E064210AC1F119
:1004E0000403CA40447804FA03F184781440214399
:1004F00009010E4C0678A155047804F01F0501246B
:10050000AC4005786D11AD0005F1E025C5F800415E
:1005100009E0047804F01F050124AC40044D06787E
:10052000761145F8264070BD0CED00E000E400E0D7
:1005300080E100E002490143024A11607047000077
:100540000000FA050CED00E07047000029B1064AF2
:1005500092690243044B9A6104E0034A9269824320
:10056000014B9A617047000000100240704710B5BF
:1005700000F002F810BD00000CB5002001900090C2
:100580003348006840F480303149086000BF30488B
:10059000006800F4003000900198401C0190009821
:1005A00018B90198B0F5A06FF1D12948006800F49E
:1005B000003010B10120009001E000200090009870
:1005C000012843D12348006840F010002149086009
:1005D0000846006820F0030008600846006840F004
:1005E000020008601A484068194948600846406897
:1005F00048600846406840F48060486008464068AB
:1006000020F47C1048600846406840F4E8104860D8
:100610000846006840F08070086000BF0C48006821
:1006200000F000700028F9D00948406820F003006D
:10063000074948600846406840F00200486000BF33
:100640000348406800F00C000828F9D10CBD0000F8
:1006500000100240002002407047000010B513480F
:10066000006840F0010011490860084640681049E0
:1006700008400E494860084600680E4908400B498A
:1006800008600846006820F480200860084640683A
:1006900020F4FE0048604FF41F008860FFF767FFFA
:1006A0004FF000600449086010BD000000100240D7
:1006B0000000FFF8FFFFF6FE08ED00E008B501219D
:1006C0000520FFF743FF01210820FFF73FFF4FF40C
:1006D0008070ADF8000018208DF8030003208DF81D
:1006E000020069461048FFF7CDFD4FF40050ADF809
:1006F000000010208DF8030069460C48FFF7C2FD8A
:100700004FF400510948FFF751FE4FF48040ADF817
:10071000000069460548FFF7B5FD4FF480410348E6
:10072000FFF744FE08BD000000080140000C014036
:1007300000B589B00121C802FFF708FF4FF4A0609F
:10074000FFF7F8FE1B208DF8040000208DF805004F
:1007500001208DF806008DF8070001A8FFF7B2FE12
:1007600040F21F30ADF81C005920ADF818000020F1
:10077000ADF81E00ADF81A0006A9174800F0E8F819
:100780003020ADF808000120ADF80A0013480088B9
:10079000ADF80E000020ADF810004FF48070ADF8F9
:1007A00014000020ADF8160002A90B4800F076F8FE
:1007B0000021094800F0BEF801220221064800F09D
:1007C00064F80121044800F034F80121024800F0E7
:1007D0003CF809B000BD0000002C014004000020DE
:1007E00010B5FFF76BFFFFF7A3FF10BD10B5022197
:1007F0000B4800F039F888B10221094800F016F8DA
:100800000021074800F0A1F806480188044800F0DC
:100810009AF805480068401C0349086010BD0000B4
:10082000002C01400400002008000020CA4302827E
:10083000704721B1028842F00102028004E0028880
:100840004FF6FE731A400280704731B1B0F8442071
:1008500042F40042A0F8442005E0B0F84420C2F37E
:100860000E02A0F84420704730B502460020002355
:100870000024158A05EA0103958905EA010413B1EC
:100880000CB1012000E0002030BD1AB183890B4378
:10089000838102E083898B438381704770B5002494
:1008A00000220023058C4FF6FE7635400584028C2D
:1008B0008388048B4FF68F752C40B51E2C400D8815
:1008C0002C43751E2A400D892A434D882A43144D16
:1008D000A8420BD0134DA84208D0134DA84205D012
:1008E000124DA84202D0124DA84213D14FF6F7750F
:1008F0002A404D892A434FF6FB752A408D882A43AA
:100900004FF6FF652B404FF6FF552B408D892B434B
:10091000CD892B4383800483CD888586028470BD76
:10092000002C0140003401400040014000440140DF
:10093000004801400A460021018B4FF6F773194029
:10094000114301837047818670478184704700009E
:10095000002202881D4B98420ED01D4B98420BD0AE
:10096000B0F1804F08D01B4B984205D01A4B9842EB
:1009700002D01A4B984204D14FF68F731A404B881D
:100980001A43174B984207D0164B984204D04FF6A3
:10099000FF431A40CB881A4302808B8883850B88DB
:1009A00003850A4B98420BD0094B984208D00E4B56
:1009B000984205D00D4B984202D00D4B984201D180
:1009C0000B7A03860123838270470000002C0140CC
:1009D000003401400004004000080040000C0040CA
:1009E000001000400014004000400140004401405D
:1009F0000048014000BFFEE70124FFF711FDFFF7AB
:100A0000EFFEFFF735FD78E0FFF7D6FC012807D1B0
:100A100000203A490860601CC4B2052C00D10124B2
:100A2000FFF7E4FC012851D1012C06D0022C12D092
:100A3000032C1FD0042C47D131E0314800883238D4
:100A40002F49088008460088B0F5967F02DA4FF4F7
:100A50009670088039E02A48008864302849088068
:100A60000846008840F6AC51884202DD0846244919
:100A700008802AE02348007840B94FF4005122480A
:100A8000FFF796FC01201F49087007E04FF4005162
:100A90001D48FFF78BFC00201A49087015E01B4821
:100AA000007840B94FF480411748FFF781FC0120DE
:100AB0001649087007E04FF480411348FFF776FCB1
:100AC00000201249087000E000BF00BF1048006815
:100AD000B0F5485F04D14FF480410B48FFF768FC44
:100AE0000748008832380649088008460088B0F573
:100AF000967F02DA4FF49670088085E79481214250
:100B00000400002000000020000C01400100002033
:100B100008000020340B0008000000200C0000003A
:100B20006C010008400B00080C0000206406000067
:100B30008801000800000000900100000000000093
:0400000508000131BD
:00000001FF
