:020000040800F2
:1000000068060020CD01000875040008B50300084B
:10001000710400087F0200089D090008000000002C
:1000200000000000000000000000000021050008A2
:100030008302000800000000FD0400080D0600080F
:10004000E7010008E7010008E7010008E7010008F0
:10005000E7010008E7010008E7010008E7010008E0
:10006000E7010008E7010008E7010008E7010008D0
:10007000E7010008E7010008E7010008E7010008C0
:10008000E7010008E7010008E7010008E7010008B0
:10009000E7010008E7010008E7010008E7010008A0
:1000A000E7010008E7010008E7010008A5070008CC
:1000B000E7010008E7010008E7010008E701000880
:1000C000E7010008E7010008E7010008E701000870
:1000D000E7010008E7010008E7010008E701000860
:1000E000E7010008E7010008E7010008E701000850
:1000F000E7010008E7010008E7010008E701000840
:10010000E7010008E7010008E7010008E70100082F
:10011000E7010008E7010008E7010008E70100081F
:10012000E7010008E7010008E7010008E70100080F
:1001300000F002F800F03AF80AA090E8000C8244BF
:100140008344AAF10107DA4501D100F02FF8AFF29C
:10015000090EBAE80F0013F0010F18BFFB1A43F0A5
:10016000010318471809000038090000103A24BF9D
:1001700078C878C1FAD8520724BF30C830C144BF0C
:1001800004680C607047000000230024002500264E
:10019000103A28BF78C1FBD8520728BF30C148BFEA
:1001A0000B6070471FB51FBD10B510BD00F031F8D2
:1001B0001146FFF7F7FF00F0F3FB00F04FF803B430
:1001C000FFF7F2FF03BC00F053F800000948804736
:1001D00009480047FEE7FEE7FEE7FEE7FEE7FEE729
:1001E000FEE7FEE7FEE7FEE704480549054A064B41
:1001F0007047000011060008310100086800002067
:1002000068060020680200206802002070477047DE
:100210007047754600F028F8AE460500694653461B
:1002200020F00700854618B020B5FFF7DDFFBDE8D8
:1002300020404FF000064FF000074FF000084FF04D
:10024000000B21F00701AC46ACE8C009ACE8C009DE
:10025000ACE8C009ACE8C0098D4670470446AFF36E
:1002600000802046FFF7ABFF0048704704000020E5
:1002700001491820ABBEFEE726000200704700BF10
:10028000FEE770472DE9F0410246002500260020D8
:1002900000230024002791F803C00CF00F0591F80B
:1002A00003C00CF0100CBCF1000F03D091F802C099
:1002B0004CEA050591F800C0BCF1000F31D014687C
:1002C00000202BE04FF0010C0CFA00F3B1F800C055
:1002D0000CEA03069E4220D183004FF00F0C0CFA6B
:1002E00003F7BC4305FA03FC4CEA040491F803C08D
:1002F000BCF1280F06D14FF0010C0CFA00FCC2F83B
:1003000014C00AE091F803C0BCF1480F05D14FF0CA
:10031000010C0CFA00FCC2F810C0401C0828D1D314
:100320001460B1F800C0BCF1FF0F34DD5468002048
:100330002EE000F1080C4FF0010808FA0CF3B1F8B8
:1003400000C00CEA03069E4221D183004FF00F0C3F
:100350000CFA03F7BC4305FA03FC4CEA040491F8D9
:1003600003C0BCF1280F05D100F1080C08FA0CF805
:10037000C2F8148091F803C0BCF1480F07D100F116
:10038000080C4FF0010808FA0CF8C2F81080401C65
:100390000828CED35460BDE8F0810246002093685F
:1003A0000B400BB1012000E0002070474161704715
:1003B0000161704700BFFEE710B508210A48FFF74A
:1003C000ECFF78B900F048F808210748FFF7E5FF8F
:1003D00040B900BF08210448FFF7DFFF0028F9D02B
:1003E000012010BD0020FCE70018014010B50421D9
:1003F0000A48FFF7D2FF78B900F02EF80421074829
:10040000FFF7CBFF40B900BF04210448FFF7C5FF49
:100410000028F9D0012010BD0020FCE700180140A1
:1004200008B50121402000F06BF80820ADF800006D
:1004300003208DF8020004208DF80300694605486A
:10044000FFF720FF0420ADF8000069460148FFF7E0
:1004500019FF08BD00180140002006E0002100E05F
:10046000491CB1F57A7FFBD3401C6428F6D3704752
:1004700000BFFEE77047000070B5002100230F2287
:10048000C47804B3154C246804F4E064C4F5E06453
:10049000210AC1F10403CA40447804FA03F18478C4
:1004A0001440214309010E4C0678A155047804F04C
:1004B0001F050124AC4005786D11AD0005F1E02564
:1004C000C5F8004109E0047804F01F050124AC40A0
:1004D000044D0678761145F8264070BD0CED00E01D
:1004E00000E400E080E100E002490143024A1160BB
:1004F000704700000000FA050CED00E070470000B6
:1005000029B1064A92690243044B9A6104E0034A06
:1005100092698243014B9A617047000000100240CB
:10052000704710B500F002F810BD00000CB50020B7
:10053000019000903348006840F4803031490860F1
:1005400000BF3048006800F4003000900198401C63
:100550000190009818B90198B0F5A06FF1D1294821
:10056000006800F4003010B10120009001E000208C
:1005700000900098012843D12348006840F0100003
:10058000214908600846006820F00300086008461A
:10059000006840F0020008601A4840681949486045
:1005A0000846406848600846406840F480604860FB
:1005B0000846406820F47C1048600846406840F4D3
:1005C000E81048600846006840F08070086000BF8E
:1005D0000C48006800F000700028F9D00948406815
:1005E00020F00300074948600846406840F00200D8
:1005F000486000BF0348406800F00C000828F9D1AB
:100600000CBD0000001002400020024070470000B6
:1006100010B51348006840F0010011490860084611
:100620004068104908400E494860084600680E4975
:1006300008400B4908600846006820F480200860E4
:100640000846406820F4FE0048604FF41F008860B0
:10065000FFF767FF4FF000600449086010BD00001D
:10066000001002400000FFF8FFFFF6FE08ED00E07A
:1006700008B501210520FFF743FF01210820FFF7FE
:100680003FFF4FF48070ADF8000018208DF8030094
:1006900003208DF8020069461148FFF7F3FD4FF47F
:1006A0000050ADF8000010208DF8030069460D4899
:1006B000FFF7E8FD4FF400510A48FFF777FE4FF4CB
:1006C0008040ADF8000010208DF803006946054811
:1006D000FFF7D8FD4FF480410248FFF767FE08BDE1
:1006E00000080140000C014000B589B00121C8029A
:1006F000FFF706FF4FF4A060FFF7F6FE1B208DF812
:10070000040000208DF8050001208DF806008DF80A
:10071000070001A8FFF7B0FE40F21F30ADF81C0043
:100720005920ADF818000020ADF81E00ADF81A00F1
:1007300006A9174800F0E0F83020ADF808000120C5
:10074000ADF80A0013480088ADF80E000020ADF89F
:1007500010004FF48070ADF814000020ADF81600C2
:1007600002A90B4800F06EF80021094800F0B6F825
:1007700001220221064800F05CF80121044800F043
:100780002CF80121024800F034F809B000BD000047
:10079000002C01400200002010B5FFF769FFFFF7B1
:1007A000A3FF10BD10B50221084800F031F860B178
:1007B0000221064800F00EF80021044800F099F8E4
:1007C00003480188014800F092F810BD002C014058
:1007D00002000020CA430282704721B1028842F021
:1007E0000102028004E002884FF6FE731A40028084
:1007F000704731B1B0F8442042F40042A0F84420E0
:1008000005E0B0F84420C2F30E02A0F8442070477F
:1008100030B50246002000230024158A05EA0103B2
:10082000958905EA010413B10CB1012000E0002014
:1008300030BD1AB183890B43838102E083898B43E6
:100840008381704770B5002400220023058C4FF689
:10085000FE7635400584028C8388048B4FF68F75B5
:100860002C40B51E2C400D882C43751E2A400D8946
:100870002A434D882A43144DA8420BD0134DA84259
:1008800008D0134DA84205D0124DA84202D0124DF7
:10089000A84213D14FF6F7752A404D892A434FF6E7
:1008A000FB752A408D882A434FF6FF652B404FF693
:1008B000FF552B408D892B43CD892B4383800483A7
:1008C000CD888586028470BD002C01400034014033
:1008D0000040014000440140004801400A46002118
:1008E000018B4FF6F77319401143018370478186DE
:1008F0007047818470470000002202881D4B984297
:100900000ED01D4B98420BD0B0F1804F08D01B4B3E
:10091000984205D01A4B984202D01A4B984204D103
:100920004FF68F731A404B881A43174B984207D0E3
:10093000164B984204D04FF6FF431A40CB881A4317
:1009400002808B8883850B8803850A4B98420BD0E5
:10095000094B984208D00E4B984205D00D4B984257
:1009600002D00D4B984201D10B7A0386012383827A
:1009700070470000002C014000340140000400409A
:1009800000080040000C004000100040001400402F
:1009900000400140004401400048014000BFFEE724
:1009A0000124FFF73DFDFFF7F7FE5EE0FFF704FDD2
:1009B000012804D1601CC4B2052C00D10124FFF72A
:1009C00015FD012851D1012C06D0022C12D0032C88
:1009D0001FD0042C47D131E0244800883238234905
:1009E000088008460088B0F5967F02DA4FF49670CA
:1009F000088039E01D48008864301C49088008469A
:100A0000008840F6B831884202DD08461749088060
:100A10002AE01748007840B94FF400511548FFF715
:100A2000C7FC01201249087007E04FF4005111483B
:100A3000FFF7BCFC00200E49087015E00E48007856
:100A400040B94FF480410B48FFF7B2FC01200A493E
:100A5000087007E04FF480410648FFF7A7FC00202C
:100A60000549087000E000BF00BF9FE702000020BA
:100A700000000020000C0140010000209C0A00083A
:100A800000000020040000006C010008A00A00081B
:100A900004000020640600008801000800009001A6
:0400000508000131BD
:00000001FF
