:020000040800F2
:10000000F00600202D02000831020008330200082B
:10001000350200083702000839020008000000001D
:100020000000000000000000000000003B0200088B
:100030003D020008000000003F02000841020008E5
:10004000430200084302000843020008430200087C
:1000500043020008430200084D070008430200085D
:1000600085070008BD070008ED07000843020008E7
:10007000430200084302000843020008430200084C
:10008000430200084302000843020008430200083C
:100090004302000843020008430200085108000818
:1000A000430200084302000843020008430200081C
:1000B00043020008614F00088D4F0008430200080A
:1000C00043020008430200084302000843020008FC
:1000D00043020008D152000843020008430200080E
:1000E00043020008430200084302000843020008DC
:1000F00043020008430200084302000843020008CC
:1001000043020008430200082D5000084302000883
:100110004302000843020008A550000843020008FB
:10012000430200084302000843020008430200089B
:1001300000F002F800F06BF80AA090E8000C82448E
:100140008344AAF10107DA4501D100F060F8AFF26B
:10015000090EBAE80F0013F0010F18BFFB1A43F0A5
:10016000010318472C8B00004C8B00000A444FF011
:10017000000C10F8013B13F0070408BF10F8014B06
:100180001D1108BF10F8015B641E05D010F8016B4B
:10019000641E01F8016BF9D113F0080F1EBF10F8AF
:1001A000014BAD1C0C1B09D16D1E58BF01F801CBD2
:1001B000FAD505E014F8016B01F8016B6D1EF9D555
:1001C0009142D6D37047000000230024002500266A
:1001D000103A28BF78C1FBD8520728BF30C148BFAA
:1001E0000B607047642900F0AD80752900F0AA808B
:1001F000782900F0E380632900F05582732900F02C
:100200005A82002070471FB51FBD10B510BD00F009
:100210006DFA1146FFF7F7FF05F0DAF800F08BFAF8
:1002200003B4FFF7F2FF03BC05F087F80848004766
:10023000FEE7FEE7FEE7FEE7FEE7FEE7FEE7FEE796
:10024000FEE7FEE703480449024A044B70470000FA
:1002500031010008F0020020F0060020F00200202A
:10026000704700000FB4044910B503AA029800F0CB
:1002700027FA10BC5DF814FB3C0000200FB41CB53D
:10028000074B06AA7B4469460090059800F0E9F9FF
:100290000020694600F0F8F91CBC5DF814FB000072
:1002A0000104000070B5044685690068C10601D5E7
:1002B000302600E02026C00707D070BDD4E9012118
:1002C00030469047206A401C20626D1EF6D570BDF6
:1002D00070B5044685690078C00707D170BDD4E9C0
:1002E000012120209047206A401C20626D1EF6D517
:1002F00070BD70B50C460546012A05D028788006E9
:1003000000D5EA69002302E0012305E05B1C93426B
:1003100002D2E05C0028F9D1A869E618C01AA861E9
:10032000286A184428622846FFF7BCFF04E0D5E994
:10033000012114F8010B9047B442F8D32846FFF787
:10034000C7FF70BD2DE9F0410646002410687529ED
:10035000314616A510D0AFF30080002802DA4042E3
:1003600013A507E031688A0701D512A502E0490705
:1003700004D511A5012401E0AFF3008000210A2279
:1003800006F1240709E0B0FBF2FCB0FBF2F302FB3C
:100390001C00303078541846491C0028F3D12346FD
:1003A0002A463046BDE8F04100F0FCB800000000ED
:1003B0002D0000002B0000002000000070B5044656
:1003C0000D4621461068AFF300802188090502D54B
:1003D0000F4A7A4402E00E4A7A440E32002104F1B8
:1003E000240305E000F00F060009965D5E54491CE9
:1003F0000028F7D120780023000704D5702D02D003
:1004000009B1022311322046BDE8704000F0CAB89D
:100410007A8600002DE9F05F894604464FF0000A15
:10042000DFF874B1FB44C0F820A02046E16888479B
:10043000002874D0252806D0D4E901219047206AED
:10044000401C2062F1E700265F462046E1688847AD
:100450002028054607DB312D05D2781910F8200C2D
:1004600008B10643F1E7B00701D526F00406C4F849
:100470001CA00027C4F818A02A2D09D0284604F093
:1004800055FF38B304EB8708303DC8F8185019E021
:1004900059F8041B204604EB87029161E168884704
:1004A000012F054618D1E069002820DA26F0200641
:1004B0001DE0D8F8180000EB800005EB4000303854
:1004C000C8F818002046E1688847054604F02EFF6A
:1004D0000028EED1012F0AD02E2D08D12046E16848
:1004E00088477F1C0546022F46F02006C4DBA06922
:1004F000002803DA404246F00106A061F00701D06F
:1005000026F010066C2D0BD0682D09D04C2D39D05B
:100510006A2D35D0742D35D07A2D33D016E038E0E1
:10052000E1682F4620468847B842054609D16C2F1E
:1005300026D04FF48060E168064320468847054690
:1005400004E06C2F1AD04FF4807006430DB3A5F170
:100550004100192802D8203546F400664A4629464B
:10056000204626604E46FFF73DFE80B101280BD0A5
:10057000F61D26F0070000F1080956E74020E4E7E1
:100580008020D8E70020D6E706F104094DE7284689
:1005900052E7206ABDE8F09F508600007047704720
:1005A000704770472DE9F0470D469946924604463C
:1005B00000F124080168880604D5E06921F01001E3
:1005C000216000E00120A84201DD471B00E0002778
:1005D000A1697A1902EB0900081AA0612078C00607
:1005E00002D42046FFF75EFE002608E0D4E9012190
:1005F0001AF806009047206A401C761C20624E457F
:10060000F4DB2078C0060AD52046FFF74BFE06E053
:10061000D4E9012130209047206A401C2062381E16
:10062000A7F10107F4DC07E0D4E9012118F805007F
:100630009047206A401C2062281EA5F10105F3DCCA
:100640002046FFF745FE2078000602D50220BDE8CF
:10065000F0870120FBE7000001694A1C026108786D
:10066000704700B58FB0CDE90131002105910549F2
:100670007944CDE9031011466846FFF7CBFE0FB071
:1006800000BD0000E5FFFFFF0A6802F8010B0A60E9
:10069000704710B5436913B1AFF3008001E0FFF775
:1006A00028FE012010BD127800F124010A700022FA
:1006B0004A700122EDE711684FF0FF32E9E70000D0
:1006C000074B70B50D467B44FFF7CBFF0446284629
:1006D00000F008F810B14FF0FF3070BD204670BD3B
:1006E000EF4C0000007B00F080007047754600F082
:1006F00029F8AE4605006946534620F007008546B6
:1007000018B020B5FFF79EFDBDE820404FF0000671
:100710004FF000074FF000084FF0000B21F00701E9
:10072000AC46ACE8C009ACE8C009ACE8C009ACE82C
:10073000C0098D4670470446AFF300802046FFF79E
:100740006FFD0000004870479002002010B50A209D
:1007500004F00AFE0848D0F80001012806D1074934
:10076000D1F8A00130B10020C1F8A0010449012056
:10077000086010BD0120F7E70000214200802142FF
:100780001404014010B50A2004F0EEFD0848D0F82A
:10079000080130B90749D1F8940130B10020C1F8FF
:1007A000940105490420086010BD0120F7E700000E
:1007B00000002342008021421404014010B50A20A9
:1007C00004F0D2FD0749D1F80C0128B9D1F8940101
:1007D00030B10020C1F8940103490820086010BD21
:1007E0000120F7E7000023421404014010B50A205D
:1007F00004F0BAFD0C49D1F8100160B90B4AD2F8E7
:10080000940160B10020C2F89401D1F8940140B184
:100810000020C1F8940106491020086010BD012095
:10082000F1E70120F5E700000000234200802142AB
:100830001404014010B502220821002000F032F813
:10084000022317220021BDE81040084603F016BD20
:1008500030B50F4B1868C00506D50E4A0E4C002067
:10086000117829B1C4F88C014FF48070186030BD44
:100870000A49C1F898010A4D102028602D1F2860F0
:100880000120C1F89801C4F88C011070ECE7000059
:1008900014040140450000200080214200802242D3
:1008A000140C014070B5144D8B088C07AE69240FF1
:1008B00046F00106AE619D00104B2B449E680F254B
:1008C000A540AE439E609D68A04005439D600C4BD3
:1008D0001C680120884004431C60D10704D00849EB
:1008E0000C310B6803430B60910704D5044A0832AE
:1008F00011680143116070BD00100240000001400A
:100900000004014041060748826942F00102826109
:100910000548426822F0E062426042680A43426051
:10092000704700000010024000000140104881693B
:1009300041F004018161816941F0400181610D480C
:10094000016821F00F010160016841F008010160B8
:1009500009480168094A114001600168084A1143C9
:10096000016005480C30016841F01C0101607047CE
:10097000001002400008014000180140FF00F0FF95
:100980000088080070B5224C224E234D012108B189
:10099000217001E0207860B1D5F8100170B1D5F870
:1009A0000C0158B1D5F8080140B1D6F80001012872
:1009B00004D0D5F8100101281BD026E00A2004F04D
:1009C000D3FC00202070D5F8100150B1D5F80C01EF
:1009D00048B1D5F8080140B1D6F80001012806D089
:1009E00013E0012070BD022070BD032070BD042003
:1009F00070BDD5F80C01012807D1D5F808010128F0
:100A000003D1D6F8000100B92170002070BD0000AC
:100A10004400002000002142000023422DE9F04361
:100A2000174F0646002438887D884543B888A0F5CE
:100A3000D041043902D1B879012807D000210846F5
:100A400003F0C4F903F0B4FB0E4815E00020B871C0
:100A50004FF02A09A7F80A904FF02B08A7F80C804E
:100A6000014603F0B3F90120B871A7F80A80A7F88E
:100A70000C90E7E70680641CAC42FBD3BDE8F08332
:100A8000800200200008006C2DE9F04F4A492A231B
:100A90002B24898845F2105A4FF4305B4FF4285EBE
:100AA0004FF448754FF0F00C49F241394FF4A077FC
:100AB00045F210364FF4F07280B13F484FF0010814
:100AC000494580F806800780A0F802C001D0B142F5
:100AD0003ED12C2505814381848157E036484FF073
:100AE0000008494580F80680A0F800C0478006D07D
:100AF000A1F5D04CBCF1040C01D0B1420CD12C2595
:100B000005814381A1F5D0438481043B01D0B142EA
:100B100044D10780428041E0514507D1A0F808B098
:100B2000A0F80AE04FF42C5181810EE0A1F5C856DF
:100B3000633E06D022210181202141812121818132
:100B40002CE02C210181448183810280458025E0B5
:100B5000A1F5D04CBCF1040C09D051450BD1A0F843
:100B600008B0A0F80AE04FF42C53838121E02C2533
:100B70000581448109E0A1F5C85CBCF1630C12D089
:100B8000222303812123438120238381A1F5D043A4
:100B9000043B01D0B14201D102804780BDE8F04F53
:100BA000002003F03FB84FF02C0CA0F808C04381A0
:100BB000848105804280E9E7800200202DE9F04F22
:100BC000DFF80C81934642460B46B8F804500C0AF5
:100BD000DFF800A19189060A5289A5F513470AF1A9
:100BE0000209413F18D0A5F5A647103F14D0B7F52C
:100BF00000771CD04746A5F5C85CBE793F883F1AF0
:100C00007F1EBCF1630C27D0A5F5D04CBCF1040CC1
:100C10003AD0012E4AD04AE0AAF800204A46A9F864
:100C20000060C0B2A9F80000AAF800103AE0AAF8E3
:100C30000020A9F80060521CAAF80020C0B2A9F850
:100C40000000AAF80010A9F80040491CAAF80010FA
:100C5000D8B2A9F8000033E006B9B8B2AAF800206B
:100C6000050A4A46A9F80050C7B2A9F80070A9F8C9
:100C70000050C0B2A9F80000AAF80010A9F800407E
:100C8000D8B2A9F800000DE0012E00D1B8B2AAF840
:100C90000020050A4A46A9F80050C0B2A9F8000091
:100CA000AAF800101480D8B2108009E0B8B201464A
:100CB000104603F087FAB8F80C00194603F082FAE0
:100CC000B8F80810AAF80010A9F800B0BDE8F08F35
:100CD00080020020FE07006C2DE9F8431F4D1F46DF
:100CE0008046AB88089EA3F5D040043802D1A8798D
:100CF000012807D0A2EB0800401C85B20C46DFF8A3
:100D0000609028E02B880846991A0024AC713A4676
:100D10002A24A3EB08036C812B27491E5B1EAF819D
:100D200089B29BB20096FFF7D7FF0120A8716F81AF
:100D3000AC81BDE8F8832146404603F047F803F054
:100D400037FA0020494602E00E80401C80B2A842DB
:100D5000FAD3641CA4B2BC42EDD9EAE780020020B9
:100D60000008006C2DE9F05FFE484069FD4940F441
:100D700080704861886940F008008861886940F0A7
:100D800020008861886940F040008861886940F4EB
:100D900080708861F4480068F34920F00F00086013
:100DA000086840F003000860F0480168F04A11400C
:100DB00001600168EF4A11430160001F016801F002
:100DC000FF210160016841F0BB110160EA48016840
:100DD00000210160026842F0BB320260001F02681D
:100DE00022F070420260026842F030420260E34842
:100DF000426822F470224260426842F4302242602B
:100E0000026822F00F020260026842F00B020260E8
:100E10004FF020408161C161C0F81C11816941F42B
:100E200080518161816941F480418161816941F032
:100E300010018161C169C161C16941F00101C161F4
:100E4000C16941F47061C161D0F81C11C0F81C1176
:100E5000D0F81C11C0F81C11D0F81C1141F44071DD
:100E6000C0F81C11816941F001018161322004F058
:100E70007BFA002002F0ACFEC14DC24C49F2413772
:100E8000A88046F6040945F2103A45F210564FF68E
:100E9000FF78FF2804D3404502D0B0F5134F70D13E
:100EA000D320208002F08AFEA88002F087FEA8806E
:100EB00002F084FE08EA00204146A88002F07EFE8F
:100EC000AA881043A880B8425BD0BF20208002F0DF
:100ED00075FEA88002F072FEA88002F06FFEA88066
:100EE00002F06CFE01EA0020A88002F067FEAA88EA
:100EF0001043A880484544D0D420208002F05EFEF4
:100F0000A88002F05BFEA88002F058FE01EA0020F3
:100F1000A88002F053FEAA881043A880504530D024
:100F20004FF45A40208002F049FEA8804FF45B4005
:100F3000208002F043FE01EA0020A8804FF45C40CC
:100F4000208002F03BFEAA881043A880B0F5004F35
:100F50007ED0B04215D0A120208002F02FFEA880C4
:100F600002F02CFE01EA0020A88002F027FEA988EA
:100F70000843A0F5AE41A880613902D141F6631063
:100F8000A880A98880A0FFF76DF9A8887D4DAD1CC9
:100F9000B8427DD1CF20208000202880C120288029
:100FA00030202880ED2020806420288003202880A5
:100FB0001220288081202880E82020808520288019
:100FC000102028807A202880CB202080392028807B
:100FD0002C2028800020288034202880022028808F
:100FE000F720208020202880EA20208000202880F0
:100FF0002880C02020801B202880C1202080012044
:101000002880C5202080302028802880C72020808C
:10101000B720288036202080482028803A20208051
:1010200055202880B1202080002028801A20288088
:10103000B62020800A202880A2202880F22020804C
:10104000002028802620208001202880E02000E049
:1010500050E020800F2028802A2028802820288007
:10106000082028800E2028800820288054202880EE
:10107000A9202880432028800A2028800F2028804B
:1010800000202880288028802880E120208000E01F
:1010900032E0002028801520288017202880072093
:1010A000288011202880062028802B202880562088
:1010B00028803C20288005202880102028800F20B0
:1010C00028803F20288028800F2028802B20208007
:1010D000002028802880012028803F2028802A2086
:1010E00020800020288028802880EF202880112060
:1010F00020808BE0AE8044E748457DD111202080E0
:10110000142004F031F9D0202080072028804220CC
:1011100028801D202880D1202080002028801A20AF
:10112000288009202880D2202080012028802220A9
:101130002880C0202080102028803B20288000208C
:1011400028800220288011202880C52020800320AC
:101150002880C82020800020288025202880212069
:10116000288019E000100240000C014004140140E6
:1011700000F0FF00BB0B00BB041801400020014041
:1011800080020020FE07006C204C43442049443A72
:1011900025780D0A00000000052028800020288006
:1011A0000A20288065202880252028807720288014
:1011B000502028800F20288000202880F8202080C0
:1011C00001202880FE202080002028800220288006
:1011D0002020208036202080082028803A2020806F
:1011E000552028802B202080002028802880012066
:1011F00028803F20288000E00EE02A202080002068
:101200002880288001202880DF202880782004F092
:10121000ABF8292001F02DBC50457DD1ED20208078
:1012200001202880FE202880EE202080DE202880DB
:1012300021202880F120208001202880DF202080AC
:1012400010202880C42020808F202880C620208065
:1012500000202880E220288028802880BF2020804D
:10126000AA202880B02020800D20288000202880FF
:101270000D20288000202880112028800020288030
:101280001920288000202880212028800020288004
:101290002D202880002028803D20288000202880C4
:1012A0005D202880002028805D2028800020288064
:1012B000B120208080202880002028808B2028805A
:1012C000002028809620288000202880B2202080BE
:1012D00000202880288002202880002028800320E9
:1012E000288000202880B3202080002028802880AB
:1012F00028802880288028802880288028802880AE
:10130000288028802880288028802880288028809D
:1013100028802880288000E0FEE32880288028801C
:10132000B42020808B2028800020288096202880D0
:1013300000202880A120288000202880B52020803F
:101340000220288000202880032028800020288078
:101350000420288000202880B620208000202880BB
:101360002880B72020800020288028803F202880E7
:10137000002028805E20288000202880642028808B
:10138000002028808C20288000202880AC20288005
:1013900000202880DC2028800020288070202880E1
:1013A000002028809020288000202880EB202880A2
:1013B00000202880DC20288000202880B820208081
:1013C0000020288028802880288028802880288065
:1013D0002880BA202080242028800020288028808F
:1013E0002880C120208020202880002028805420B0
:1013F000288000202880FF20288000202880C2200C
:1014000020800A20288000202880042028800020B6
:101410002880C32020803C202880002028803A207B
:10142000288000202880392028800020288037202C
:101430002880002028803C2028800020288036201A
:1014400028800020288032202880002028802F201B
:101450002880002028802C20288000202880292017
:101460002880002028802620288000202880242012
:101470002880002028802420288000202880232005
:101480002880002028803C202880002028803620CA
:1014900028800020288032202880002028802F20CB
:1014A0002880002028802C202880002028802920C7
:1014B00028800020288026202880002028802420C2
:1014C00028800020288024202880002028802320B5
:1014D000288000202880C4202080622028800020CE
:1014E0002880052028800020288084202880002053
:1014F0002880F020288000202880182028800020C4
:101500002880A420288000202880182028800020FF
:10151000288050202880002028800C20288000204F
:1015200028801720288000202880952028800020EF
:101530002880F320288000202880E62028800020B2
:101540002880C52020803220288000202880442048
:101550002880002028806520288000202880762090
:101560002880002028808820288000202880C6200D
:10157000208020202880002028801720288000201C
:1015800028800120288000202880C720208000207B
:101590002880288028802880C8202080002028805B
:1015A000288028802880C92020800020288028804A
:1015B00028802880288028802880288028802880EB
:1015C000288028802880288028802880E02020808B
:1015D00016202880002028801C20288000202880B9
:1015E0002120288000202880362028800020288084
:1015F0004620288000202880522028800020288033
:1016000064202880002028807A20288000202880DC
:101610008B20288000202880992028800020288086
:10162000A820288000202880B92028800020288039
:10163000C420288000202880CA20288000202880FC
:10164000D220288000202880D920288000202880CF
:10165000E020288000202880F32028800020288097
:10166000E120208016202880002028801C2028804F
:1016700000202880222028800020288036202880F2
:1016800000202880452028800020288052202880A3
:101690000020288064202880002028807A2028804C
:1016A000002028808B2028800020288099202880F6
:1016B00000202880A820288000202880B9202880A9
:1016C00000202880C420288000202880CA2028806C
:1016D00000202880D220288000202880D820288040
:1016E00000202880E020288000202880F320288007
:1016F00000202880E22020800520288000202880EB
:101700000B202880002028801B2028800020288093
:101710003420288000202880442028800020288031
:101720004F202880002028806120288000202880E9
:101730007920288000202880882028800020288088
:101740009720288000202880A6202880002028803C
:10175000B720288000202880C220288000202880F0
:10176000C720288000202880D120288000202880C1
:10177000D620288000202880DD2028800020288096
:10178000F320288000202880E32020800520288066
:10179000002028800A202880002028801C20288003
:1017A00000202880332028800020288044202880A2
:1017B0000020288050202880002028806220288057
:1017C00000202880782028800020288088202880F9
:1017D000002028809720288000202880A6202880AC
:1017E00000202880B720288000202880C220288060
:1017F00000202880C720288000202880D120288031
:1018000000202880D520288000202880DD20288006
:1018100000202880F320288000202880E4202080D9
:101820000120288000202880012028800020288096
:1018300002202880002028802A202880002028805C
:101840003C202880002028804B20288000202880F1
:101850005D20288000202880742028800020288097
:101860008420288000202880932028800020288041
:10187000A220288000202880B320288000202880F3
:10188000BE20288000202880C420288000202880B6
:10189000CD20288000202880D32028800020288088
:1018A000DD20288000202880F32028800020288048
:1018B000E5202080002028802880288028800220A1
:1018C00028800020288029202880002028803C2093
:1018D0002880002028804B202880002028805D2040
:1018E00028800020288074202880002028808420E0
:1018F0002880002028809320288000202880A22093
:10190000288000202880B320288000202880BE2046
:10191000288000202880C420288000202880CD2016
:10192000288000202880D320288000202880DC20E8
:10193000288000202880F320288000202880E620AE
:10194000208011202880002028803420288000203A
:10195000288056202880002028807620288000209B
:10196000288077202880002028806620288000207A
:101970002880882028800020288099202880002026
:101980002880BB20288000202880992028800020E3
:10199000288066202880002028805520288000206C
:1019A000288055202880002028804520288000207D
:1019B0002880432028800020288044202880002080
:1019C0002880E72020803220288000202880552091
:1019D000288000202880762028800020288066200B
:1019E0002880002028806720288000202880672009
:1019F00028800020288087202880002028809920A7
:101A0000288000202880BB20288000202880992062
:101A100028800020288077202880002028804420EB
:101A2000288000202880562028800020288023201D
:101A3000288000202880332028800020288045200E
:101A4000288000202880E82020800020288028800E
:101A50009920288000202880872028800020288046
:101A60008820288000202880772028800020288057
:101A70006620288000202880882028800020288058
:101A8000AA20288000202880BB20288000202880D1
:101A90009920288000202880662028800020288027
:101AA000552028800020288055202880002028806C
:101AB000442028800020288044202880002028807E
:101AC0005520288000202880E9202080AA20288016
:101AD00000202880288028802080AA202880CF20ED
:101AE0002080002028802880288028802880288046
:101AF00028802880288028802880288028802880A6
:101B0000288028802880F0202080002028805020F5
:101B100028800020288000E02CE028802880F32006
:101B2000208000202880F920208006202880102096
:101B3000288029202880002028803A2020805520D5
:101B4000288011202080642003F00EFC29202080B2
:101B5000352020800020288051202080FF202880F0
:101B6000532020802C20288055202080822028800F
:101B70002C20FCE3B0427DD14FF470435521184630
:101B800002F020FB4FF20105AA21284602F01AFBC1
:101B90006E1C5221304602F015FBAF1C082138465E
:101BA00002F010FB4FF204090121484602F00AFB43
:101BB0000D214FF4304002F005FB0D214BF20100E6
:101BC00002F000FB0D214BF2020002F0FBFA4FF491
:101BD000364A3421504602F0F5FA34214BF20160C6
:101BE00002F0F0FA34214BF2026002F0EBFA4FF40B
:101BF000314B0D21584602F0E5FA0D214BF2011050
:101C000002F0E0FA0D214BF2021002F0DBFA34216F
:101C10004FF4374002F0D6FA34214BF2017002F053
:101C2000D1FA34214BF2027002F0CCFA00214FF4C9
:101C3000324002F0C7FA00214BF2012002F0C2FA52
:101C400000214BF2022002F0BDFA24214FF438406B
:101C500002F0B8FA24214BF6010002F0B3FA242175
:101C60004BF6020002F0AEFA01214FF43F4002F0C1
:101C7000A9FA00E0FEE30F214FF4334002F0A2FA8C
:101C80000F214BF2013002F09DFA0F214BF202308E
:101C900002F098FA34214FF4394002F093FA3421DB
:101CA0004BF6011002F08EFA34214BF6021002F0CE
:101CB00089FA08214FF4354002F084FA08214BF2EA
:101CC000015002F07FFA08214BF2025002F07AFA3A
:101CD00003214FF4424002F075FA24214FF43A40B8
:101CE00002F070FA24214BF6012002F06BFA242155
:101CF0004BF6022002F066FA00214FF43C4002F05D
:101D000061FA78214BF6014002F05CFA00214BF6B3
:101D1000024002F057FA00214FF43D4002F052FA1F
:101D200078214BF6015002F04DFA00214BF602509B
:101D300002F048FA00214FF43E4002F043FA6421D9
:101D40004BF6016002F03EFA00214FF4514002F0E0
:101D500039FA33214DF2011002F034FA00214DF22C
:101D6000021002F02FFA34214DF2031002F02AFA89
:101D700000214DF2041002F025FA3A214DF205102F
:101D800002F020FA00214DF2061002F01BFA4A215F
:101D90004DF2071002F016FA00214DF2081002F081
:101DA00011FA5C214DF2091002F00CFA00214DF2FB
:101DB0000A1002F007FA81214DF20B1002F002FA2C
:101DC00000214DF20C1002F0FDF9A6214DF20D108C
:101DD00002F0F8F900214DF20E1002F0F3F9E521BE
:101DE0004DF20F1002F0EEF901214DF2101002F049
:101DF000E9F913214DF2111002F0E4F901214DF23D
:101E0000121002F0DFF954214DF2131002F0DAF94A
:101E100001214DF2141002F0D5F982214DF2151076
:101E200002F0D0F901214DF2161002F0CBF9CA21CF
:101E30004DF2171002F0C6F902214DF2181002F00F
:101E4000C1F900214DF2191002F0BCF902214DF246
:101E50001A1002F0B7F901214DF21B1002F0B2F98D
:101E600002214DF21C1002F0ADF934214DF21D108B
:101E700002F0A8F902214DF21E1002F0A3F9672129
:101E80004DF21F1002F09EF902214DF2201002F0D7
:101E900099F984214DF2211002F094F902214DF2BA
:101EA000221002F08FF9A4214DF2231002F08AF9DA
:101EB00002214DF2241002F085F9B7214DF22510D0
:101EC00002F080F902214DF2261002F07BF9CF21B9
:101ED0004DF2271002F076F902214DF2281002F09F
:101EE00071F9DE214DF2291002F06CF902214DF258
:101EF0002A1002F067F9F2214DF22B1002F062F97C
:101F000002214DF22C1002F05DF9FE214DF22D1050
:101F100002F058F903214DF22E1002F053F910216E
:101F20004DF22F1002F04EF903214DF2301002F065
:101F300049F933214DF2311002F044F903214DF2F9
:101F4000321002F03FF96D214DF2331002F03AF9F0
:101F500000214FF4524002F035F933214DF20120B7
:101F600002F030F900214DF2022002F02BF9342169
:101F70004DF2032002F026F900214DF2042002F078
:101F800021F93A214DF2052002F01CF900214DF211
:101F9000062002F017F94A214DF2072002F012F94B
:101FA00000214DF2082002F00DF95C214DF20920CC
:101FB00002F008F900214DF20A2002F003F9812114
:101FC0004DF20B2002F0FEF800214DF20C2002F041
:101FD000F9F8A6214DF20D2002F0F4F800214DF29F
:101FE0000E2002F0EFF8E5214DF20F2002F0EAF8A2
:101FF00001214DF2102002F0E5F813214DF21120DD
:1020000002F0E0F801214DF2122002F0DBF8542139
:102010004DF2132002F0D6F801214DF2142002F007
:10202000D1F882214DF2152002F0CCF801214DF2B9
:10203000162002F0C7F8CA214DF2172002F0C2F8AC
:1020400002214DF2182002F0BDF800214DF21920B6
:1020500002F0B8F802214DF21A2002F0B3F8012183
:102060004DF21B2002F0AEF802214DF21C2002F0CE
:10207000A9F834214DF21D2002F0A4F802214DF2FE
:102080001E2002F09FF867214DF21F2002F09AF8FF
:1020900002214DF2202002F095F884214DF22120FA
:1020A00002F090F802214DF2222002F08BF8A421D8
:1020B0004DF2232002F086F802214DF2242002F096
:1020C00081F8B7214DF2252002F07CF802214DF273
:1020D000262002F077F8CF214DF2272002F072F887
:1020E00002214DF2282002F06DF8DE214DF2292068
:1020F00002F068F802214DF22A2002F063F8F22182
:102100004DF22B2002F05EF802214DF22C2002F05D
:1021100059F8FE214DF22D2002F054F803214DF222
:102120002E2002F04FF810214DF22F2002F04AF835
:1021300003214DF2302002F045F833214DF23120D9
:1021400002F040F803214DF2322002F03BF86D21FD
:102150004DF2332002F036F800214FF4534002F0E4
:1021600031F833214DF2013002F02CF800214DF20C
:10217000023002F027F834214DF2033002F022F849
:1021800000214DF2043002F01DF83A214DF20530E5
:1021900002F018F800214DF2063002F013F84A213F
:1021A0004DF2073002F00EF800214DF2083002F037
:1021B00009F85C214DF2093002F004F800214DF2DB
:1021C0000A3001F0FFFF81214DF20B3001F0FAFFE0
:1021D00000214DF20C3001F0F5FFA6214DF20D303B
:1021E00001F0F0FF00214DF20E3001F0EBFFE52190
:1021F0004DF20F3001F0E6FF01214DF2103001F0F9
:10220000E1FF13214DF2113001F0DCFF01214DF20D
:10221000123001F0D7FF54214DF2133001F0D2FFFC
:1022200001214DF2143001F0CDFF82214DF2153025
:1022300001F0C8FF01214DF2163001F0C3FFCA21A1
:102240004DF2173001F0BEFF02214DF2183001F0BF
:10225000B9FF00214DF2193001F0B4FF02214DF217
:102260001A3001F0AFFF01214DF21B3001F0AAFF3F
:1022700002214DF21C3001F0A5FF34214DF21D303A
:1022800001F0A0FF02214DF21E3001F09BFF6721FB
:102290004DF21F3001F096FF02214DF2203001F087
:1022A00091FF84214DF2213001F08CFF02214DF28B
:1022B000223001F087FFA4214DF2233001F082FF8C
:1022C00002214DF2243001F07DFFB7214DF225307F
:1022D00001F078FF02214DF2263001F073FFCF218B
:1022E0004DF2273001F06EFF02214DF2283001F04F
:1022F00069FFDE214DF2293001F064FF02214DF229
:102300002A3001F05FFFF2214DF22B3001F05AFF2D
:1023100002214DF22C3001F055FFFE214DF22D30FF
:1023200001F050FF03214DF22E3001F04BFF102140
:102330004DF22F3001F046FF03214DF2303001F015
:1023400041FF33214DF2313001F03CFF03214DF2CA
:10235000323001F037FF6D214DF2333001F032FFA2
:1023600000214FF4544001F02DFF332100E080E3C1
:102370004DF2014001F026FF00214DF2024001F034
:1023800021FF34214DF2034001F01CFF00214DF2EA
:10239000044001F017FF3A214DF2054001F012FF11
:1023A00000214DF2064001F00DFF4A214DF2074099
:1023B00001F008FF00214DF2084001F003FF5C210D
:1023C0004DF2094001F0FEFE00214DF20A4001F0FD
:1023D000F9FE81214DF20B4001F0F4FE00214DF297
:1023E0000C4001F0EFFEA6214DF20D4001F0EAFE97
:1023F00000214DF20E4001F0E5FEE5214DF20F40C7
:1024000001F0E0FE01214DF2104001F0DBFE13214E
:102410004DF2114001F0D6FE01214DF2124001F0C3
:10242000D1FE54214DF2134001F0CCFE01214DF2BA
:10243000144001F0C7FE82214DF2154001F0C2FEAA
:1024400001214DF2164001F0BDFECA214DF21740A8
:1024500001F0B8FE02214DF2184001F0B3FE002158
:102460004DF2194001F0AEFE02214DF21A4001F08A
:10247000A9FE00E0FFE201214DF21B4001F0A2FEA7
:1024800002214DF21C4001F09DFE34214DF21D4011
:1024900001F098FE02214DF21E4001F093FE6721EB
:1024A0004DF21F4001F08EFE02214DF2204001F05E
:1024B00089FE84214DF2214001F084FE02214DF27B
:1024C000224001F07FFEA4214DF2234001F07AFE6C
:1024D00002214DF2244001F075FEB7214DF2254056
:1024E00001F070FE02214DF2264001F06BFECF217B
:1024F0004DF2274001F066FE02214DF2284001F026
:1025000061FEDE214DF2294001F05CFE02214DF218
:102510002A4001F057FEF2214DF22B4001F052FE0D
:1025200002214DF22C4001F04DFEFE214DF22D40D6
:1025300001F048FE03214DF22E4001F043FE102130
:102540004DF22F4001F03EFE03214DF2304001F0EC
:1025500039FE33214DF2314001F034FE03214DF2BA
:10256000324001F02FFE6D214DF2334001F02AFE82
:1025700000214FF4554001F025FE33214DF201506A
:1025800001F020FE00214DF2025001F01BFE34212B
:102590004DF2035001F016FE00214DF2045001F0FF
:1025A00011FE3A214DF2055001F00CFE00214DF2D2
:1025B000065001F007FE4A214DF2075001F002FEDD
:1025C00000214DF2085001F0FDFD5C214DF2095053
:1025D00001F0F8FD00214DF20A5001F0F3FD8121D8
:1025E0004DF20B5001F0EEFD00214DF20C5001F0C8
:1025F000E9FDA6214DF20D5001F0E4FD00214DF260
:102600000E5001F0DFFDE5214DF20F5001F0DAFD33
:1026100001214DF2105001F0D5FD13214DF2115062
:1026200001F0D0FD01214DF2125001F0CBFD5421FB
:102630004DF2135001F0C6FD01214DF2145001F08E
:10264000C1FD82214DF2155001F0BCFD01214DF27A
:10265000165001F0B7FDCA214DF2175001F0B2FD3E
:1026600002214DF2185001F0ADFD00214DF219503C
:1026700001F0A8FD02214DF21A5001F0A3FD012145
:102680004DF21B5001F09EFD02214DF21C5001F055
:1026900099FD34214DF21D5001F094FD02214DF2BF
:1026A0001E5001F08FFD67214DF21F5001F08AFD91
:1026B00002214DF2205001F085FD84214DF2215080
:1026C00001F080FD02214DF2225001F07BFDA4219A
:1026D0004DF2235001F076FD02214DF2245001F01D
:1026E00071FDB7214DF2255001F06CFD02214DF234
:1026F000265001F067FDCF214DF2275001F062FD19
:1027000002214DF2285001F05DFDDE214DF22950ED
:1027100001F058FD02214DF22A5001F053FDF22143
:102720004DF22B5001F04EFD02214DF22C5001F0E4
:1027300049FDFE214DF22D5001F044FD03214DF2E3
:102740002E5001F03FFD10214DF22F5001F03AFDC7
:1027500003214DF2305001F035FD33214DF231505F
:1027600001F030FD03214DF2325001F02BFD6D21BF
:102770004DF2335001F026FD00214FF4564001F098
:1027800021FD33214DF2016001F01CFD00214DF2CD
:10279000026001F017FD34214DF2036001F012FDDB
:1027A00000214DF2046001F00DFD3A214DF205606B
:1027B00001F008FD00214DF2066001F003FD4A2101
:1027C0004DF2076001F0FEFC00214DF2086001F0BF
:1027D000F9FC5C214DF2096001F0F4FC00214DF29E
:1027E0000A6001F0EFFC81214DF20B6001F0EAFC80
:1027F00000214DF20C6001F0E5FCA6214DF20D60C8
:1028000001F0E0FC00214DF20E6001F0DBFCE5215F
:102810004DF20F6001F0D6FC01214DF2106001F085
:10282000D1FC13214DF2116001F0CCFC01214DF2DD
:10283000126001F0C7FC54214DF2136001F0C2FC9C
:1028400001214DF2146001F0BDFC82214DF21560B2
:1028500001F0B8FC01214DF2166001F0B3FCCA2171
:102860004DF2176001F0AEFC02214DF2186001F04C
:10287000A9FC00214DF2196001F0A4FC02214DF2E7
:102880001A6001F09FFC01214DF21B6001F09AFCDF
:1028900002214DF21C6001F095FC34214DF21D60C7
:1028A00001F090FC02214DF21E6001F08BFC6721CB
:1028B0004DF21F6001F086FC02214DF2206001F014
:1028C00081FC84214DF2216001F07CFC02214DF25B
:1028D000226001F077FCA4214DF2236001F072FC2C
:1028E00002214DF2246001F06DFCB7214DF225600C
:1028F00001F068FC02214DF2266001F063FCCF215B
:102900004DF2276001F05EFC02214DF2286001F0DB
:1029100059FCDE214DF2296001F054FC02214DF2F8
:102920002A6001F04FFCF2214DF22B6001F04AFCCD
:1029300002214DF22C6001F045FCFE214DF22D608C
:1029400001F040FC03214DF22E6001F03BFC102110
:102950004DF22F6001F036FC03214DF2306001F0A2
:1029600031FC33214DF2316001F02CFC03214DF29A
:10297000326001F027FC6D214DF2336001F022FC42
:102980005521184601F01EFCAA21284601F01AFC28
:102990005221304601F016FC0821384601F012FCA5
:1029A0000021484601F00EFCCC21584601F00AFCFB
:1029B00000214BF2011001F005FC0521504601F009
:1029C00001FC70214FF4374001F0FCFB70214BF209
:1029D000017001F0F7FB01214FF4384001F0F2FBE8
:1029E00003214BF6010001F0EDFB03214BF6020041
:1029F00001F0E8FB03214BF6030001F0E3FB0221A9
:102A00004FF43C4001F0DEFB00214BF6014001F0A9
:102A1000D9FB00214BF6024001F0D4FBD0214FF44A
:102A2000494001F0CFFB02214CF6011001F0CAFB36
:102A300050214CF6021001F0C5FB50214CF603105A
:102A400001F0C0FB50214CF6041001F0BBFB00214B
:102A50004FF4545001F0B6FB55214FF4685001F08B
:102A6000B1FB4FF488502080782002F091FC4FF4A5
:102A700024502080FDE3A0F513414FF480764FF4FD
:102A8000E06940F2022B4FF4274A253924D040F266
:102A90000777C91E7ED04FF4887A08317BD0113970
:102AA0007AD0A0F5A841083977D0A0F5A8514FF405
:102AB000407A053972D0B1F5204170D0B1F580511E
:102AC0006ED0A0F58A4131396BD0091F6AD0A0F5CC
:102AD000C851633967D0CDE747F6F001E52001F032
:102AE00071FB3146012001F06DFB4946022001F0E7
:102AF00069FB41F23001032001F064FB0021042056
:102B000001F060FB5946082001F05CFB0021092020
:102B100001F058FB00210A2001F054FB00210C2099
:102B200001F050FB00210D2001F04CFB00210F2093
:102B300001F048FB0021102001F044FB0721112087
:102B400001F040FB0021122001F03CFB002113208A
:102B500001F038FB0021072001F034FB41F29061C5
:102B6000102001F02FFB40F22721112001F02AFB59
:102B70009D21122001F026FB4FF4C851132001F0D3
:102B800021FB2521292001F01DFB0D212B2001F027
:102B900019FB09E077E033E1D8E1AEE24AE3FDE377
:102BA000FDE3FDE3FDE3FDE30721302001F00AFB37
:102BB00040F20331312001F005FB0321322001F006
:102BC00001FB40F20621352001F0FCFA08213620F5
:102BD00001F0F8FA40F20641372001F0F3FA4FF421
:102BE0004171382001F0EEFA0721392001F0EAFAAC
:102BF00040F202613C2001F0E5FA08213D2001F09D
:102C0000E1FA0021502001F0DDFAEF21512001F01E
:102C1000D9FA0021522001F0D5FA40F23F11532099
:102C200001F0D0FA5146602001F0CCFA0121612078
:102C300001F0C8FA00216A2001F0C4FA00218020C6
:102C400001F0C0FA0021812001F0BCFA00218220AD
:102C500001F0B8FA0021832001F0B4FA00218420A9
:102C600001F0B0FA0021852001F0ACFA102190208B
:102C700001F0A8FA4FF4C061922001F0A3FA40F2EB
:102C800033110720FDE341F28F01EC2001F09AFAA5
:102C900041F23421EF2001F095FA3146012001F094
:102CA00091FA4946022001F08DFA41F230010320E9
:102CB00001F088FA0021042001F084FA5946082026
:102CC00001F080FA0021092001F07CFA00210A209D
:102CD00001F078FA01210C2001F074FA00210D2096
:102CE00001F070FA00210F2001F06CFA0021102091
:102CF00001F068FA0721112001F064FA0021122086
:102D000001F060FA0021132001F05CFA0121072094
:102D100001F058FA322002F027FB41F290411020D6
:102D200001F050FA40F22721112001F04BFA322035
:102D300002F01AFB8A21122001F044FA322002F03C
:102D400013FB4FF4D051132001F03CFA0621292047
:102D500001F038FA0D212B2001F034FA322002F074
:102D600003FB0021202001F02DFA0021212001F099
:102D700029FA322002F0F8FA0021302001F022FA7C
:102D800040F20461312001F01DFA40F20531322099
:102D900001F018FA0021352001F014FA40F609413B
:102DA000362001F00FFA4FF40171372001F00AFAD2
:102DB00040F20131382001F005FA3946392001F09E
:102DC00001FA00213C2001F0FDF940F60A213D20E6
:102DD00001F0F8F9322002F0C7FA0021502001F08A
:102DE000F1F9EF21512001F0EDF90021522001F01D
:102DF000E9F940F23F11532001F0E4F9514651E165
:102E00000021084601F0DEF93146012001F0DAF92F
:102E10004946022001F0D6F941F23001032001F0C9
:102E2000D1F90021042001F0CDF95946082001F024
:102E3000C9F90021092001F0C5F900210A2001F09B
:102E4000C1F901210C2001F0BDF900210D2001F094
:102E5000B9F900210F2001F0B5F9322002F084FA0F
:102E600040F20111072001F0ADF9322002F07CFAA6
:102E70004FF48651102001F0A5F90721112001F02F
:102E8000A1F953465146122001F09CF94FF43061EC
:102E9000132001F097F90021292001F093F944F261
:102EA00010012B2001F08EF90021502001F08AF949
:102EB000EF21512001F086F90021522001F082F922
:102EC00040F23F11532001F07DF94FF41C51602076
:102ED00001F078F90121612001F074F900216A20E4
:102EE00001F070F90021802001F06CF900218120AF
:102EF00001F068F90021822001F064F900218320AB
:102F000001F060F90021842001F05CF900218520A6
:102F100001F058F91021902001F054F9002192207D
:102F200001F050F90121932001F04CF91946952048
:102F300001F048F90021972001F044F90021982080
:102F400001F040F940F27311072085E341F21401CA
:102F5000E72001F037F93146012001F033F94FF451
:102F60000071022001F02EF941F23801032001F036
:102F700029F95946082001F025F90021092001F01E
:102F800021F900210A2001F01DF900210C2001F097
:102F900019F900210D2001F015F900210F2001F091
:102FA00011F90021102001F00DF90721112001F085
:102FB00009F90021122001F005F90021132001F088
:102FC00001F9C82002F0D0F941F29061102001F01F
:102FD000F9F840F22721112001F0F4F8322002F034
:102FE000C3F90C21122001F0EDF8322002F0BCF9F7
:102FF0004FF40061132001F0E5F81121292001F0C0
:10300000E1F80B212B2001F0DDF8322002F0ACF9C1
:103010000021202001F0D6F840F23F13194621206C
:1030200001F0D0F80021302001F0CCF84FF4837487
:103030002146312001F0C6F80021322001F0C2F80B
:103040004FF40171352001F0BDF841F20A613620DC
:1030500001F0B8F83946372001F0B4F8214638209D
:1030600001F0B0F83946392001F0ACF840F20241E5
:103070003C2001F0A7F840F60F413D2001F0A2F8F6
:103080000021502001F09EF8EF21512001F09AF824
:103090000021522001F096F81946532001F092F8D1
:1030A0004FF41C51602001F08DF80121612001F0E6
:1030B00089F800216A2001F085F80021802001F0C4
:1030C00081F80021812001F07DF80021822001F0AB
:1030D00079F80021832001F075F80021842001F0A7
:1030E00071F80021852001F06DF81021902001F089
:1030F00069F84FF4C0619220FDE33146012001F0F0
:1031000061F84946022001F05DF841F230010320E8
:1031100001F058F80021042001F054F840F2072192
:10312000082001F04FF80021092001F04BF80021A0
:103130000A2001F047F800210C2001F043F800219B
:103140000D2001F03FF800210F2001F03BF8142082
:1031500002F00AF941F2B061102001F033F80121C8
:10316000112001F02FF80121172001F02BF84FF466
:103170009C71122001F026F84FF40061132001F039
:1031800021F80921292001F01DF809212A2001F048
:1031900019F80021A42001F015F80021502001F0B9
:1031A00011F8EF21512001F00DF80021522001F01B
:1031B00009F840F23F11532001F004F84FF41C517C
:1031C000602000F0FFFF0121612000F0FBFF0021E3
:1031D0006A2000F0F7FF0021802000F0F3FF0021BB
:1031E000812000F0EFFF0021822000F0EBFF0021A2
:1031F000832000F0E7FF0021842000F0E3FF00219E
:10320000852000F0DFFF1321902000F0DBFF00217C
:10321000922000F0D7FF0321932000F0D3FF514606
:10322000952000F0CFFF40F27311072000F0CAFF95
:10323000322010E10021072000F0C4FF322002F00C
:1032400093F84FF48E71122000F0BCFF0121A420EE
:1032500000F0B8FF0F21082000F0B4FF08210A2079
:1032600000F0B0FF08210D2000F0ACFF39463020FF
:1032700000E072E300F0A6FF0721312000F0A2FF7A
:1032800040F20361322000F09DFF4C464946332056
:1032900000F098FF5946342000F094FF02213520B9
:1032A00000F090FF41F60F71362000F08BFF394699
:1032B000372000F087FF0021382000F083FF002135
:1032C000392000F07FFF39463A2000F07BFF0021D3
:1032D0003B2000F077FF07213C2000F073FF002126
:1032E0003D2000F06FFF322002F03EF80121072060
:1032F00000F068FF0121172000F064FF322002F087
:1033000033F84FF4BD51102000F05CFF40F217215C
:10331000112000F057FF4FF48F71122000F052FF80
:103320004FF47061132000F04DFF00212A2000F0BF
:1033300049FF0A21292000F045FF4FF49F71122018
:1033400000F040FF0021502000F03CFFEF21512011
:1033500000F038FF0021522000F034FF40F23F110E
:10336000532000F02FFF4FF41C51602000F02AFF83
:103370000121612000F026FF00216A2000F022FFD9
:103380000021802000F01EFF0021812000F01AFFA4
:103390000021822000F016FF002104E05EE05CE1E5
:1033A00025E2DBE282E3832000F00CFF0021842091
:1033B00000F008FF0021852000F004FF1321902079
:1033C00000F000FF5146922000F0FCFE0521932002
:1033D00000F0F8FE0021952000F0F4FE0021972077
:1033E00000F0F0FE0021982000F0ECFE31460120B4
:1033F00000F0E8FE2146022000F0E4FE41F2380130
:10340000032000F0DFFE0021042000F0DBFE00219D
:103410000C2000F0D7FE00210F2000F0D3FE002189
:10342000202000F0CFFE0021212000F0CBFE212142
:10343000072000F0C7FE142001F096FF612107204D
:1034400000F0C0FE142001F08FFF40F2731107203E
:1034500000F0B8FE142001F087FFA1E30021084628
:1034600000F0B0FE0021084600F0ACFE0021084646
:1034700000F0A8FE0021084600F0A4FE0121A420CF
:1034800000E0E5E000F09EFE142001F06DFF4FF437
:103490001C542146602000F095FE5D4659460820E8
:1034A00000F090FE4FF40571302000F08BFE43F2E7
:1034B0001571312000F086FE40F20461322000F0E8
:1034C00081FE40F61661332000F07CFE42F21121AD
:1034D000342000F077FE4FF4A851352000F072FE42
:1034E00048F20751362000F06DFE41F207413720C7
:1034F00000F068FE41F20341382000F063FE202115
:10350000392000F05FFE1A21902000F05BFE0021C0
:10351000102000F057FE0721112000F053FE00217B
:10352000122000F04FFE0021132000F04BFE14206B
:1035300001F01AFF4FF4E661102000F043FE40F264
:103540003711112000F03EFE142001F00DFF4FF462
:10355000DC71122000F036FE142001F005FF4FF45C
:103560007061132000F02EFE80212A2000F02AFE38
:103570004821292000F026FE142001F0F5FE3146F6
:10358000012000F01FFE4946022000F01BFE41F220
:103590003801032000F016FE2946082000F012FE34
:1035A00000210A2000F00EFE00210C2000F00AFE8F
:1035B00000210D2000F006FE30210E2000F002FE5A
:1035C0000021502000F0FEFDEF21512000F0FAFD17
:1035D0000021522000F0F6FD40F23F11532000F090
:1035E000F1FD2146602000F0EDFD0121612000F099
:1035F000E9FD00216A2000F0E5FD1121902000F096
:10360000E1FD4FF4C061922000F0DCFD40F2024188
:10361000932000F0D7FD0221942000F0D3FD142068
:1036200001F0A2FE0121072000F0CCFD142001F0E2
:103630009BFE6121072000F0C5FD40F273110720B9
:1036400000F0C0FD0021202000F0BCFD0021212061
:1036500000F0B8FD222100207DE10021084600F0A5
:10366000B1FD0021084600F0ADFD142001F07CFE04
:103670000021084600F0A6FD0021084600F0A2FD4A
:103680000021084600F09EFD0021084600F09AFD4A
:103690000121A42000F096FD142001F065FE4FF4F6
:1036A0001C51602000F08EFD40F60601082000F05D
:1036B00089FD40F203731946302000F083FD01219B
:1036C000312000F07FFD0421322000F07BFD4FF41B
:1036D0008171332000F076FD54465146342000F0CD
:1036E00071FD40F20311352000F06CFD1F213620E2
:1036F00000F068FD1946372000F064FD01213820F4
:1037000000F060FD0421392000F05CFD15219020BF
:1037100000F058FD4FF48261102000F053FD40F29C
:103720004721112000F04EFD4FF4DE71122000F011
:1037300049FD4FF46061132000F044FD782001F052
:1037400013FE3146012000F03DFD4FF400710220D0
:1037500000F038FD41F23001032000F033FD082174
:103760000A2000F02FFD00210C2000F02BFD20216D
:103770000E2000F027FD00210F2000F023FD002186
:10378000202000F01FFD0021212000F01BFD3D2125
:103790002A2000F017FD142001F0E6FD2D2129203C
:1037A00000F010FD0021502000F00CFD4DF2EF0163
:1037B000512000F007FD0021522000F003FD40F2EF
:1037C0003F11532000F0FEFC0021612000F0FAFCC4
:1037D00000216A2000F0F6FC2146922000F0F2FC65
:1037E0000521932000F0EEFC3146FFF7ADBB01212F
:1037F000002000F0E7FC0A2001F0B6FD41F228614C
:10380000102000F0DFFC0E21122000F0DBFC40F65F
:103810003921132000F0D6FC0A2001F0A5FD40213B
:10382000112000F0CFFC5021152000F0CBFC0A2025
:1038300001F09AFD1E21122000F0C4FC0A2001F0C4
:1038400093FD4FF4B151102000F0BCFC42F6392139
:10385000132000F0B7FC0A2001F086FD314601205C
:1038600000F0B0FC5146022000F0ACFC41F23801FF
:10387000032000F0A7FC5946082000F0A3FC082113
:103880000A2000F09FFC0021302000F09BFC40F259
:103890000241312000F096FC4FF48371322000F099
:1038A00091FC40F20351332000F08CFC4FF4827104
:1038B000342000F087FC40F20131352000F082FC1A
:1038C0003946362000F07EFC40F20531372000F00A
:1038D00079FC4FF40271382000F074FC40F60B7153
:1038E000392000F06FFC0221412000F06BFC4FF406
:1038F0001C51602000E0D4E000F064FC0121612054
:1039000000F060FC4FF40471902000F05BFC4FF479
:103910008571922000F056FC0421932000F052FCA7
:103920003146A02000F04EFC0121072000F04AFCA7
:103930002121072000F046FC2321072000F042FC53
:103940003321072000F03EFC40F23311072000F045
:1039500039FC0021A02000F035FC21E130211520A8
:1039600000F030FC10219A2000F02CFC20211120C6
:1039700000F028FC43F22841102000F023FC022133
:10398000122000F01FFC41F23801132000F01AFC55
:10399000282001F0E9FC1221084600F013FC282041
:1039A00001F0E2FC43F22041102000F00BFC43F256
:1039B0003801132000F006FC462001F0D5FC002160
:1039C000302000F0FFFB40F20241312000F0FAFB12
:1039D00040F20731322000F0F5FB4FF44171332003
:1039E00000F0F0FB0421342000F0ECFB40F2014138
:1039F000352000F0E7FB3946362000F0E3FB40F2CB
:103A00000531372000F0DEFB4FF4C2631946382041
:103A100000F0D8FB1946392000F0D4FB31460120D4
:103A200000F0D0FB5146022000F0CCFB41F2300107
:103A3000032000F0C7FB40F60801082000F0C2FB9D
:103A400008210A2000F0BEFB4FF41C51602000F05A
:103A5000B9FB0121612000F0B5FB4FF49F7190206C
:103A600000F0B0FB3146922000F0ACFB31469320D1
:103A700000F0A8FB4FF44051A02000F0A3FB102160
:103A8000A32000F09FFB0121072000F09BFB2121D8
:103A9000072000F097FB2321072000F093FB332140
:103AA000072000F08FFB40F233119EE6E2202080D9
:103AB0001D2028800220288004202880642001F016
:103AC00067FCE0202080012028800A2001F04CFCC7
:103AD000E0202080032028800C2001F045FC0120FC
:103AE00020800A2001F040FCE62020802F20288042
:103AF000FF2028802880B0202080202028800020DF
:103B000028800320288040F21F3028800120288050
:103B100040F2DF10288000202880B420208004207C
:103B2000288040F21F402880002028802E202880F6
:103B300000202880288028802880B620208002202D
:103B400028804FF4037028800020288017202880C8
:103B500015202880002028802880F0202080032045
:103B6000288029202080D020208000202880BE208E
:103B7000208005202880FE20288001202880002029
:103B8000288028802880B8202080032028800120D9
:103B90002880BA20208001202880642000F024F8AA
:103BA0000020FCF771FF04490120C1F88001404664
:103BB000BDE8F05FFCF732BF00802142034808B542
:103BC0000088ADF80000BDF8000008BD0008006CDA
:103BD000044910B50880052001F0DAFBBDE810406B
:103BE000FFF7ECBFFE07006C0C4A10B5BE21118038
:103BF000941C0521218002F0BAFE4FF06632084B7A
:103C000002F0C8FE02F086FE208001202080FF2006
:103C1000208000202080208010BD0000FE07006C66
:103C200066660440F0B5674E00233146B279898854
:103C300046F6040741F66314012A01D02AB11DE0BB
:103C4000B9421BD0A14202D118E0A14216D10828E6
:103C500014D2DFE800F00406080A0C0E1012062049
:103C60000CE007200AE0042008E0052006E001201F
:103C700004E0002002E0032000E00220A1F5134C44
:103C800045F2103245F21055BCF1410C07D0B94253
:103C900005D0914203D0A94201D0A14275D1082894
:103CA00012D2DFE800F0110406080A0C0E1080237F
:103CB0000AE0402308E0C02306E0202304E060235C
:103CC00002E0A02300E0E023A94202D14FF45850C3
:103CD00000E03620914205D0A94203D0A14201D094
:103CE00043F00803B94201D143F00203194600F042
:103CF00069FAB288A2420AD098063088718802D543
:103D0000884202D303E0884201D9318070802E4876
:103D1000811CAA427289028021D100230B80531C8E
:103D2000038000230B80931C038033885B1E1C0AD6
:103D30000C80D21C0280DAB20A80B2890280002391
:103D40000B80531C038000230B80931C038073881B
:103D50005B1E1C0A0C80D21C0280D8B212E000222A
:103D60000A800A803288521E130A0B80D2B20A805F
:103D7000B28902800020088008807088401E020AF4
:103D80000A80C0B20880F0BDFFE7082812D2DFE841
:103D900000F0040608110A0C0E1030230AE010236C
:103DA00008E0202306E0382304E0282302E018235B
:103DB00000E00823BDE8F040032043F4805100F008
:103DC00001BA000080020020FE07006C2DE9F04FD0
:103DD0004E4F0B463A46BD880C0ADFF834B1918944
:103DE0005289A5F513464FEA102C0BF1020A413E09
:103DF0001DD0A5F5A646103E19D03E46BE4696F803
:103E000006903688A5F5D047A6EB0008A8F1010872
:103E1000043F17D0A5F5C857633F28D0A5F5AA479A
:103E20007646103F51D0B9F1010F63D064E0ABF892
:103E300000205246AAF800C0C0B2AAF80000ABF8B1
:103E400000100FE0B9F1010F01D11FFA88F0ABF8B3
:103E50000020050A5246AAF80050C0B2AAF8000095
:103E6000ABF800101480D8B21080BDE8F08FB9F123
:103E7000000F1BD0ABF800205246AAF800C0C0B219
:103E8000AAF80000761E300AAAF80000F0B21080EE
:103E9000ABF8001011461480D8B21080BEF80200B2
:103EA000401E020A0A80C0B20880DEE71FFA88F0CE
:103EB000ABF8002000265246AAF80060AAF800607D
:103EC000060AAAF80060C0B2E1E7ABF80020AAF841
:103ED00000C0521CABF80020C0B2AAF80000ABF83A
:103EE0000010AAF80040491CABF80010D8B2AAF89C
:103EF0000000BAE71FFA88F00146104600F062F9A8
:103F0000B089BDE8F04F194600F05CB9800200208E
:103F1000FE07006C2DE9FC4F044691464844401EC4
:103F200086B2C818401E83B2009004EB0900401E00
:103F3000C0F3072EDFF850C100980D46C0F3072BE1
:103F40006046BCF804204FEA112881894089A2F517
:103F500013474FEA142A413F10D0A2F5A647103F5D
:103F60000CD0A2F5D047043F08D09CF8067041F66B
:103F7000631C0197012F13D1624511D1434F388043
:103F8000B81CA0F800A0E2B20280A0F800E0F2B2F3
:103F900002803980A0F80080E9B2018059461CE017
:103FA000394F62453F881DD1A7EB0902121B374CE0
:103FB000009B92B29BB22080160AA01C0680D6B24B
:103FC00006804A44521E160A0680D2B20280218020
:103FD000A0F80080E9B20180190A0180D9B20180FD
:103FE000BDE8FC8FA2F5A04CBCF5A26C1FD00198D7
:103FF00001283FD0B04621462E4650204FF0510AAE
:104000004FF05209532700F0DDF84146504600F0CA
:10401000D9F83146484600F0D5F81946384600F040
:10402000D1F829462046BDE8FC4FFFF7CFBE174A1E
:104030001080971CA7F800A000F1010CA2F800C0A6
:10404000E4B23C80841C1480A7F800E0C01C1080FF
:10405000F0B238801180A7F80080481C1080E8B2C8
:104060003880881C1080A7F800B0C91C1180D8B215
:104070003880B5E7B81B401E86B2381B9846401EF4
:10408000294683B2B9E7000080020020FE07006CD9
:104090002DE9F84F82461F460C468B46580700D044
:1040A000012000EBD70079084843203AC0B202F063
:1040B000FF090026009041E00C2F10D0102F12D0E5
:1040C000182F3ED1204909EBC90001EB80004FF0C9
:1040D0000008855D28060AD51C4802880BE009EB1C
:1040E00049001B49F1E71B4901EB0910EFE70A986A
:1040F00028B91648428821465046FCF75FFD6806FD
:10410000050E1548641CA4B24088A04219D9A4EB3E
:104110000B00B84209D10AF101001FFA80FA0E48DB
:104120005C46018851450CD906E008F1010000F019
:10413000FF08B8F1080FCDD3761CF6B2009886427E
:10414000BAD3BDE8F88F0000227B000840000020B1
:10415000BE70000832750008800200202DE9F84F7B
:10416000044600F0FF0810190D46DDE90A761FFA33
:1041700080FA58191FFA80F94FF0000B11E05445EE
:1041800002D3E819444685B24D450FD23B46294635
:104190002046CDF800B0FFF77BFF04EB570084B258
:1041A000761C3278A2F120005E28E8D9BDE8F88FAD
:1041B00002480349008908807047000080020020FF
:1041C000FE07006C024A1080901C018070470000BE
:1041D000FE07006C1348816941F008018161816923
:1041E00041F0400181611048016821F470010160D3
:1041F000016841F4401101600B480C30016841F046
:10420000200101600948016821F470010160016822
:1042100041F44011016005480C30016841F0200173
:104220000160704700100240000C0140001801407E
:104230000F4800210161C160142242618161C161A6
:10424000026842F00102026042680A4B1A40426072
:104250000268094B1A400260026822F48022026060
:10426000426822F4FE0242608160C00300F03EB862
:10427000001002400000FFF8FFFFF6FEF0B5064612
:1042800014460F461D46184600F01EF8C5F10400FE
:1042900086400F21E940394031436009800000F138
:1042A000E020D0F8002104F01F050123AB401A43A1
:1042B000C0F8002104F1E02494F8000440EA011061
:1042C00084F80004F0BD0000064A0721814310680D
:1042D0004FF6FF031840044B184340EA01201060DA
:1042E000704700000CED00E00000FA05024A1140A2
:1042F000014302480160704780FFFF1F08ED00E0A6
:10430000002130B1012806D0032806D0042807D1A7
:1043100005E0B02104E0982102E0182100E03021FE
:10432000552000F0C7BD70B5802622255E2430B12F
:10433000012808D003280AD004280FD10BE040261A
:1043400011252F240AE066261B254B2406E099261A
:104350002825712402E0C02633258D2431464F20C4
:1043600000F0A8FD3146502000F0A4FD00215120AE
:1043700000F0A0FD2946522000F09CFD214653206C
:1043800000F098FD3146542000F094FDBDE87040E7
:104390009E21582000F08EBD402130B1012806D06A
:1043A000032806D0042807D105E0302104E0382195
:1043B00002E0502100E06021562000F07BBD0000AB
:1043C00070B540480024816941F004018161816930
:1043D00041F008018161816941F0100181618169C9
:1043E00041F020018161816941F480718161364829
:1043F000016821F00F010160016841F008010160CE
:1044000031480830016841F4807101602F4801682B
:1044100021F47F210160016841F44C3101602B4897
:104420000C30016841F01801016029484FF08831D3
:104430000160C16841F0FF01C1602648016821F0B8
:1044400070610160016841F04071016021480C30E9
:10445000016841F0400101601F48416821F07F413F
:104460004160416841F04C5141604FF4E031C1601E
:104470000120FCF747FA00F0E9FB8021122000F050
:1044800019FD08B1012070BD322000F06DFF0B2036
:1044900000F06CFC732804D10A2000F067FC762839
:1044A00001D0022070BD0D4D05EB4400417815F898
:1044B000140000F0FFFC641CA4B2A82CF4D300206C
:1044C00070BD00000010024004080140000C0140D3
:1044D0000010014000140140002001407E880008C7
:1044E00070B50025E7212C46012806D0022808D007
:1044F00003280AD004280FD10BE0E5215A255C24BB
:104500000AE0E5215825602406E0E52184254C24B5
:1045100002E0E52196254024132000F0CBFC29463B
:10452000012000F0C7FC2146BDE87040022000F0E9
:10453000C1BC70B50421C0248025072816D2DFE84D
:1045400000F0150406090B0E1200242100E01421CE
:1045500080240BE0142109E01421402405E01421FB
:104560008024C02502E01421A02440253A2000F038
:10457000A1FC2146682000F09DFC2946BDE8704062
:10458000672000F097BC2DE9F041054600EB4200A2
:1045900086B201EB430084B20F46B4F5447F02D9E2
:1045A000A4F54474A4B2032000F0E0FB06F003027B
:1045B000294600F0F00062F39F010143032000F060
:1045C00079FCC5F38701192000F074FCC6F387015C
:1045D0001A2000F06FFC322000F0C8FBC7F3C701BF
:1045E000172000F067FCC4F3C701BDE8F0411820B4
:1045F00000F060BC2DE9F047DFF8DC9099F800008E
:10460000002867D00420FFF70DFB34494FF4A07257
:104610008888A0F5C853633B07D0A0F5AA43103B98
:1046200013D013F5007310D01FE008884988F038C4
:10463000A1F5A07101EBD17100EBD0701346C1F36D
:104640004F01C0F34F00F0220DE008884988A0F523
:10465000A070F03901EBD17100EBD070C1F34F01C4
:10466000C0F34F00F023FFF755FCFFF7A1FD1C48F6
:104670000027C0F8B8711B4C10212160251F29604C
:1046800021600122C0F8B8212960174EDFF85C8054
:1046900038464FF6FF734FF4963A2160B2682960AE
:1046A00003EA02222160D6F808C029600CF0FF0C52
:1046B0004CEA020CA8F800C0401C5045EDD30C4950
:1046C00089F800700878401C0870BDE8F0470020A9
:1046D000FFF7A8BABDE8F08745000020800200205F
:1046E00000002442140C0140001001400008006C3E
:1046F0004B00002010B5001D092815D2DFE800F09E
:104700001F1D12100E0C0A070500482100E0382179
:10471000062409E02821FBE71821F9E70821F7E73B
:10472000082100E018210E249B2000F0C3FB214645
:10473000BDE81040AB2000F0BDBB2821F3E73821D5
:10474000F1E710B5011D08290BD804014034E1B28E
:10475000A72000F0AFFBE1B2BDE81040A82000F0B8
:10476000A9BB10BD011D082906D8202101EB80003E
:10477000C1B29C2000F09EBB7047000070B54D4850
:104780000024816941F004018161816941F00801DF
:104790008161816941F010018161816941F02001ED
:1047A0008161816941F4807181614348016821F030
:1047B0000F010160016841F0080101603E480830C6
:1047C000016841F4807101603C48016821F47F2157
:1047D0000160016841F44C31016038480C300168D7
:1047E00041F01801016036484FF088310160C1681E
:1047F00041F0FF01C1603348016821F07061016040
:10480000016841F0407101602E480C30016841F0B0
:10481000400101602C48416821F07F4141604168BE
:1048200041F04C5141604FF4E031C1600120FCF790
:1048300069F800F00BFA8021122000F03BFB08B170
:10484000012070BD322000F08FFD1C2000F08EFA98
:104850004FF6FF7505EA00261D2000F087FA40EAB2
:104860000601A1F5FE40A23803D018A0FBF7FAFC20
:10487000E6E70A2000F07AFA05EA00250B2000F0AE
:1048800075FA40EA0501A1F5EE40213804D012A0E6
:10489000FBF7E8FC022070BD124D05EB44004178A7
:1048A00015F8140000F006FB641CA4B2412CF4D3EC
:1048B000002070BD0010024004080140000C0140BF
:1048C0000010014000140140002001404D49443ACD
:1048D00025640D0A000000004849443A25640D0A89
:1048E00000000000CE89000810B5062847D2DFE896
:1048F00000F003061D27313CFF21132009E0FD21B4
:10490000132000F0D7FA5A21012000F0D3FA5C21DD
:1049100029E000F0CFFA65210E2000F0CBFA00214B
:104920002D2000F0C7FA00212E2024E0FD211320C5
:1049300000F0C0FA5821012000F0BCFA602112E01A
:10494000FD21132000F0B6FA8421012000F0B2FA14
:104950004C2108E0FD21132000F0ACFA9621012043
:1049600000F0A8FA40210220D3E7FF21132000F035
:10497000A1FAE5210E20BDE8104000F09BBA10BD61
:1049800010B5072840D2DFE800F0040609131D2700
:104990003100062103E04621A62031E02621A62091
:1049A00000F088FA8021602000F084FA802126E05F
:1049B0001E21A62000F07EFA8021602000F07AFA05
:1049C000C0211CE01E21A62000F074FA60210846D8
:1049D00000F070FA602112E01E21A62000F06AFAB1
:1049E000A021602000F066FA402108E01E21A620E8
:1049F00000F060FA4021602000F05CFAA021612004
:104A0000BDE8104000F056BA10BD2DE9F0470C4645
:104A100005464AB3C5F5207000EBD070C0F34F07D0
:104A2000C4F5F07000EBD070C0F34F0606211220E1
:104A300000F040FA2321172000F03CFAA0211820B2
:104A400000F038FA0721192000F034FAF0211A207A
:104A500000F030FA0021322000F02CFAA0212920A9
:104A600000F028FAF02128E0C5F5A07000EBD07026
:104A7000C0F34F07C4F1F00000EBD070C0F34F0655
:104A80004621122000F016FA3F21172000F012FAFA
:104A90005021182000F00EFA0321192000F00AFA24
:104AA00078211A2000F006FA0021322000F002FAE4
:104AB0005021292000F0FEF978212C2000F0FAF98D
:104AC000172000F053F900EB9700C1B2172000F057
:104AD000F1F9C5F387018A46182000F0EBF9192097
:104AE00000F044F900EB5600C1B2192000F0E2F9E1
:104AF000C4F3470189461A2000F0DCF9322000F0A7
:104B000035F98046F007400E07F0030104F0010676
:104B100040EA011040EA860105F00304214341EA1E
:104B20000801322000F0C6F95146292000F0C2F9F0
:104B300049462C2000F0BEF92A2000F017F944EA7B
:104B4000080444EA8601BDE8F0472A2000F0B2B923
:104B50002DE9F05FDFF8D8B09BF80000002865D0A1
:104B60000420FFF75FF8334C4FF4A075F023208842
:104B70006188A0F5A070F03901EBD17100EBD07025
:104B8000C1F34F01C0F34F002A46FFF7C3F9A088D5
:104B9000A0F5C851633910D120886188A0F5A070B4
:104BA000F03901EBD17100EBD070C1F34F01C0F3CC
:104BB0004F002B46F022FFF7ADF9FFF7F9FA1E4838
:104BC0004FF0000AC0F8B8A11C4E10213160371F09
:104BD000396031600122C0F8B8213960A946184D0A
:104BE000DFF8608054464FF6FF7300203160AA68FA
:104BF000396003EA02223160D5F808C039600CF050
:104C0000FF0C4CEA020CA8F800C0401C4845EDD34C
:104C1000641CF02CE9D30C488BF800A00178491CE7
:104C20000170BDE8F05F0020FEF7FCBFBDE8F09F1B
:104C3000450000208002002000002442140C0140A6
:104C4000001001400008006C4B00002016488169EC
:104C500041F480718161816941F0200181611348D3
:104C6000416821F470014160416841F400014160F4
:104C7000C16841F40051C1600D490A6822F47042D4
:104C80000A600A6842F440520A6009490C310A6815
:104C900042F008020A60416821F4700141604168F5
:104CA00041F4401141607047001002400020014073
:104CB0000014014070B5322000F06AFB0C4D012059
:104CC000C5F8B4010B4EC6F88C01322005F5DA7533
:104CD00006F5C67600F05CFB00243460322000F05C
:104CE00057FB2C60BDE87040322000F051BB000043
:104CF00000002442008022422DE9F047184F002492
:104D0000786820F470007860786840F4000078607B
:104D1000DFF85090144E08254FF00108A2463220CB
:104D200000F036FBC6F88C816006040ED9F8340119
:104D300008B1641CE4B2322000F02AFBC6F88CA152
:104D40006D1E15F0FF05EAD1786820F470007860D8
:104D5000786840F4401078602046BDE8F087000095
:104D600000200140000024420080224210B5044689
:104D700000F022F8422000F055F8642000F008FB13
:104D8000204600F04FF8642000F002FB00F02EF8FF
:104D9000642000F0FDFA00F00FF8432000F042F824
:104DA000642000F0F5FAFFF7A7FF0446FFF782FF43
:104DB00000F01CF8204610BD70B50A4E0120C6F860
:104DC000B401094DC5F88C01322005F5C67506F50C
:104DD000DA7600F0DDFA00243460322000F0D8FAF0
:104DE0002C6070BD000024420080224270B50B4C44
:104DF0000020C4F8B401322004F5DA7400F0C8FAD7
:104E000007480125C0F88C51322000F0C1FA256016
:104E1000BDE87040322000F0BBBA00000000244220
:104E2000008022422DE9F04700241F4E1F4F054607
:104E3000A0464FF00109280601D5484600E040464B
:104E4000C6F8B4016806050E322000F0A1FAC7F8D2
:104E50008C91322000F09CFAC7F88C81641CE4B27B
:104E6000082CE8D3124C606820F470006060606821
:104E700040F400006060322000F08AFAC7F88C919C
:104E8000322000F085FAD6F8340100B10120C7F8CD
:104E90008C81616821F470016160616841F44011A6
:104EA0006160BDE8F08700000000244200802242DB
:104EB0000020014070B50D4606460024FFF77CFF38
:104EC0004220FFF7AFFF00B10124642000F060FA38
:104ED0003046FFF7A7FF00B10124642000F058FA24
:104EE0002846FFF79FFF00B10124FFF77FFF204610
:104EF00070BD000030B505460024FFF799F916494A
:104F0000086840F4803008600868400CFCD04FF41A
:104F100080604860AD1E4A68E8B242EA804048605E
:104F2000486840F4803048600C48026842F0320221
:104F30000260086840F0807008600868400EFCD08D
:104F4000486840F00200486002E04868C0F381040D
:104F5000022CFAD130BD00000010024000200240B7
:104F600008490888C00706D0074AD2F8940138B12A
:104F70000020C2F89401088820F0010008807047E2
:104F80000120F6E7100400400000234210B50A4C4F
:104F90002088C0070BD009480069804706490020D7
:104FA0001431088004494FF47A701C31088020883D
:104FB00020F00100208010BD10080040C400002037
:104FC000174AD36943F00803D361936943F004039C
:104FD0009361144A136823F0F0031360136843F0DD
:104FE00040031360104A1080101F01800E481438CF
:104FF000018841F48071018001880180018801806D
:1050000009480C3801880180018841F010010180B5
:1050100005482C38018841F00101018070470000EB
:1050200000100240000801402C0C004030B51A4B23
:1050300019881A4A4FF00004107805062AD4CD07C3
:1050400006D0450604D5C543AD0612D0401C1070ED
:1050500088071FD510781249450611D540F0800009
:1050600010700F48143000885080088820F002002B
:105070000FE040F0800010704FF6FF705080E7E7BF
:105080005480402010700648001D0480088840F0BD
:10509000020008801C8030BD100C00404A00002037
:1050A000200C004070B5084C208AC00706D0074D80
:1050B00007A06978FBF7D6F800206870208A20F0F6
:1050C0000100208270BD0000001000404A00002056
:1050D0006672616D653A25646670730D0A000000A2
:1050E0000A4AD36943F01003D361094A90851185B8
:1050F000908940F001009081108840F001001080FC
:105100000223362203210120FFF7B8B80010024025
:105110000010004070B50446002504E000F008F8D7
:10512000A84200D90546641EE4B2F7D2284670BDF5
:1051300010B500F067F8084A07484FF60B61143ABB
:1051400004E003888B4201D9008810BD13885B07F7
:10515000F7D501481430F7E7240C004030B5401E65
:1051600081B285B04FF6FF70FFF72AFF00246D462D
:10517000FFF7DEFF25F814000A2000F0F5F8641CA4
:10518000E4B20A2CF4D300214C1CE0B20BE035F859
:10519000113035F81020934203D925F8112025F855
:1051A0001030401CC0B20A28F1D3E1B20929EBD378
:1051B0000021022035F81020401C1144C0B289B2F1
:1051C0000828F7D30620B1FBF0F0074C6080618817
:1051D00006A0FBF747F86088B0F5004F02D3012026
:1051E00005B030BD0020FBE746000020747061640C
:1051F0005F64656661756C745F76616C3A25640DF9
:105200000A00000010B5104C206820F0F00020606B
:10521000206840F0300020600B480C30016821F01D
:1052200002010160052000F09FF808490020088075
:10523000064914310880206820F0F00020602068C2
:1052400040F04000206010BD00080140100C0040FC
:1052500070B501000D4C4FF000054FF0030002D077
:10526000002106202170FFF755FF618864318842D4
:10527000207804D900B901250320207000E010B186
:10528000C0B2401E2070284670BD000046000020BD
:105290000D4AD36943F00403D3610C4A1080101FF8
:1052A00001800A482038018841F001010180074847
:1052B0002C38018841F00101018002231E220321C4
:1052C0000846FEF7DBBF0000001002402C0800403B
:1052D00030B51348008880060ED51148001D00889F
:1052E000104AC1B21088030406D444044FF00003EE
:1052F00006D50A2901D0138030BD40F400400DE0EE
:105300000D2909D0C0F30D04074D401C80B229556A
:105310001080C728EFD830BD40F48040108030BDE9
:105320000038014038000020B801002030380A2839
:1053300001D2012070470020704770474FF0E021F4
:105340000A6922F004020A610649C00800EB400223
:105350000870C2EBC0104FF6FF7202EAC00048802E
:1053600070470000340000200849498848434FF046
:10537000E021486100238B61012008610869C207B0
:1053800001D0C003FAD50B618B6170473400002057
:105390000849097848434FF0E021486100238B61B8
:1053A000012008610869C20701D0C003FAD50B616A
:1053B0008B6170473400002004490A885206FCD5EE
:1053C000024AC1B2121D118070470000003801402E
:1053D00086B04FF00008C346C146C246474646461F
:1053E00045460920FFF786FD4FF4E131482000F0E3
:1053F000B7FA4820FFF7A2FFFE48416848208847D7
:10540000FEF7E8FEFBF792FAFBF7ACFC0620FFF78D
:10541000A5FEF9494FF4784010240880F7A0CDE9A3
:1054200000402346C82232211E20FEF797FEF7A037
:10543000CDE900401023C82246211E20FEF78EFE33
:10544000F7A0CDE900401023C8225A211E20FEF704
:1054500085FEF7A0CDE900401023C8226E211E2052
:10546000FEF77CFEF5A0CDE900401023C822822182
:105470001E20FEF773FEF5A0CDE900401023C822E0
:1054800096211E20FEF76AFEF4A0CDE9004010230D
:10549000C822AA211E20FEF761FEF4A0CDE900403B
:1054A0001023C822BE211E20FEF758FEF3A0CDE92E
:1054B00000401023C822D2211E20FEF74FFEF3A089
:1054C000CDE900401023C822E6211E20FEF746FE4B
:1054D000FFF754F9E8B1FEF773FF00286BD01020F6
:1054E000F0A1CDE900010346C822E6211E20FEF707
:1054F00035FEC820FFF738FF4FF6FF700090F62307
:10550000EF22E6211E20FBF7E7FBC820FFF72CFF68
:10551000DEE71020E9A1CDE9000103460124C822FD
:10552000E6211E20FEF71AFE0020FBF72BFA0128C9
:105530000CD002280CD008F1010000F0FF08B8F1EF
:10554000640F1DD0B8F1C80F25D030E0002200E074
:105550000122F0214FF4A070FFF757FA4FF0000836
:105560004846FFF7C1F93846FFF7EBF83046FFF73A
:10557000C1F82846FFF7F6F85046FFF701FA3FE07A
:105580001020D4A1CDE900010346D222FA211E2029
:10559000FEF7E4FD0BE04FF6FF7000904FF48573CB
:1055A000D222FA211E20FBF797FB4FF000080520BE
:1055B000FFF7DAFEB8E71020CBA1CDE900010346E2
:1055C0000224C822E6211E20FEF7C8FD40F2DC506E
:1055D000FFF7CAFE4846FEF783FF3846FEF7A3FEF4
:1055E0003046FEF78DFE2846FEF7D6FE5046FEF703
:1055F000A0FF4FF4A073F022B0210C20FEF7C3FFF0
:10560000BF490020C1F8BC0141F61F4142F21070B1
:10561000FFF766FDFBF70EF90020FBF7FFF900200E
:10562000FBF7B0F9002874D04FF0140B012806D016
:10563000022821D0032842D004286AD162E009F16F
:105640000100C0B28146012C02D0022C08D00EE02D
:10565000B9F1050F01D900208146FFF745F906E0B1
:10566000B9F1040F01D900208146FEF739FFA549A1
:1056700051F82920A4A168E07F1C7FB2012C02D040
:10568000022C0DD018E0042F02DD6FF0030703E0B9
:1056900017F1040F00DA04273846FFF752F80BE041
:1056A000022F02DD6FF0010703E017F1020F00DAAD
:1056B0000227F8B2FEF737FE3A4694A145E0761C81
:1056C00076B2012C02D0022C0DD018E0042E02DD9F
:1056D0006FF0030603E016F1040F00DA04263046EB
:1056E000FFF708F80BE0022E02DD6FF0010603E081
:1056F00016F1020F00DA0226F0B2FEF701FE324682
:1057000086A122E06D1C6DB2012C03D0022C0ED0BC
:1057100019E01DE0042D02DD6FF0030503E015F133
:10572000040F00DA04252846FFF71CF80BE0022DD1
:1057300002DD6FF0010503E015F1020F00DA02252A
:10574000E8B2FEF729FE2A4678A102A8FAF796FDEC
:105750000020FFF77DFDD8B10AF10100C0B28246FA
:10576000062801D900208246012C02D0022C03D049
:1057700004E0FFF705F901E0FEF7DBFE614902A84E
:10578000183151F82A2060A1FAF778FD4FF0140B78
:10579000012C02D0022C03D004E0FFF7D9F901E07C
:1057A000FEF728FFBBF1000F1DD0634902AB1022AA
:1057B00008884988CDE90023A1F5A07101EBD171DA
:1057C0003C2202EB6101F03800EBD0701E2202EBAC
:1057D000600089B280B21023C822FEF7BFFCABF193
:1057E000010000F0FF0B08F1010000F0FF08B8F124
:1057F0000F0FA3E0C4000020400000205761725347
:105800006869702053544D33320000004F563737CB
:1058100032355F4F563736373020544553540000E9
:1058200041544F4D40414C49454E54454B000000BA
:10583000323031372F31312F310000004B45593094
:105840003A4C69676874204D6F6465004B45593167
:105850003A53617475726174696F6E004B455932C9
:105860003A4272696768746E657373004B45595F9D
:1058700055503A436F6E74726173740054504144D2
:105880003A45666665637473000000004F5637370B
:1058900032355F4F563736373020496E69742E2EB9
:1058A0002E0000004F56373732355F4F56373637A8
:1058B00030204572726F7221210000004F56373739
:1058C000323520496E6974204F4B20202020202043
:1058D000200000004B4559303A5156474120204B9B
:1058E0004559313A564741004F56373637302049EF
:1058F0006E6974204F4B20202020202020000000C3
:1059000000002442000000202573000053617475DC
:10591000726174696F6E3A256400000042726967B3
:1059200068746E6573733A2564000000436F6E748B
:10593000726173743A256400800200207FF46FAEB8
:1059400005494FF00008D1F8940118B10020C1F8C2
:10595000940164E60120FAE7008021420068704764
:1059600070B50446080101F05DFA0546244860431D
:1059700001F058FA294601F073F9054601F032FAB0
:1059800084B2204601F04EFA294601F0A9FA04211A
:1059900001F057FB01F026FA4FF6FF7101EA0411FE
:1059A0000A181848816941F004018161816941F454
:1059B0008041816114490B6823F47F630B600B689D
:1059C00043F40B630B60C16841F48041C160C1685E
:1059D00021F48041C1600D480280001D018842F21F
:1059E0000C0211430180018841F020010180BDE8D3
:1059F00070400223252203210846FEF73FBC000029
:105A000040420F00001002400408014008380140E5
:105A100070B594B0064613AB11AA694600F0DCF9E4
:105A2000002824D18DF840001D4C042514E0206886
:105A300005EBC10113AB405812AA08A900F0CCF93C
:105A4000002814D1694608A800F003FC88B19DF82D
:105A50004000401C8DF84000207D9DF84010884299
:105A6000E5D8207D9DF8401088420ED1042014B066
:105A700070BD9DF848009DF84410884201D902206D
:105A8000F5E79DF84000A075EBE710A9304600F05F
:105A900057FA0028EBD19DF8400060750020E6E73A
:105AA000C40000202DE9F0417E4E9AB0B57D307DD6
:105AB000A8427CD90421306801EBC50119AB4058DC
:105AC00018AA10A900F088F910A977A0FAF7CAFB64
:105AD00000240DF1180832E0308B0121A14008426A
